:060000000A128A110C280F
:10000800FE00030EF0000A08F1000A128A11C62C3D
:100018000A128A110F280A128A11DC240A128A117C
:10002800B4000A128A11DD240A128A11B5000A12D4
:100038008A11DE240A128A11B6000A128A11DF24F4
:100048000A128A11B7000A128A11E0240A128A11C8
:10005800B800AE01AF01B001B101B201B301830133
:100068000A128A1137288316031788018901831613
:10007800031388018701FF30860083120313880168
:1000880087018316031301138B100B168B170108B6
:100098007F398100293084008312031334088313C5
:1000A8008000840A35088000840A36088000840AA3
:1000B80037088000840A3808800020308400290826
:1000C8008000840A2A088000840A2B088000840A99
:1000D8002C088000840A2D0880000A128A11A222A6
:1000E8000A128A112930F8000030F900FA010130AB
:1000F800FB000A128A1135240A128A11831203138B
:100108003308031D88288928C52900300A128A1156
:10011800E0230A128A1101300A128A11E0230A1216
:100128008A1108300A128A11E0230A128A11013052
:100138000A128A11E0230A128A1100300A128A115F
:100148004E230A128A1108300A128A11E0230A1271
:100158008A1103300A128A11E0230A128A11003028
:100168000A128A114E230A128A1108300A128A11B9
:10017800E0230A128A1105300A128A11E0230A12B2
:100188008A1100300A128A114E230A128A11083085
:100198000A128A11E0230A128A1107300A128A11F8
:1001A800E0230A128A1100300A128A114E230A1219
:1001B8008A1108300A128A11E0230A128A110930BA
:1001C8000A128A11E0230A128A1100300A128A11CF
:1001D8004E230A128A1108300A128A11E0230A12E1
:1001E8008A110B300A128A11E0230A128A11003090
:1001F8000A128A114E230A128A1108300A128A1129
:10020800E0230A128A110D300A128A11E0230A1219
:100218008A1100300A128A114E230A128A110830F4
:100228000A128A11E0230A128A110F300A128A115F
:10023800E0230A128A1100300A128A114E230A1288
:100248008A110C300A128A11E0230A128A1100302E
:100258000A128A11E0230A128A1100300A128A113E
:100268004E230A128A110C300A128A11E0230A124C
:100278008A1102300A128A11E0230A128A11003008
:100288000A128A114E230A128A110C300A128A1194
:10029800E0230A128A1104300A128A11E0230A1292
:1002A8008A1100300A128A114E230A128A110C3060
:1002B8000A128A11E0230A128A1106300A128A11D8
:1002C800E0230A128A1100300A128A114E230A12F8
:1002D8008A110C300A128A11E0230A128A11083096
:1002E8000A128A11E0230A128A1100300A128A11AE
:1002F8004E230A128A110C300A128A11E0230A12BC
:100308008A110A300A128A11E0230A128A1100306F
:100318000A128A114E230A128A110C300A128A1103
:10032800E0230A128A110C300A128A11E0230A12F9
:100338008A1100300A128A114E230A128A110C30CF
:100348000A128A11E0230A128A110E300A128A113F
:10035800E0230A128A1100300A128A114E230A1267
:100368008A11023083120313A8000430A700B930A1
:10037800A600A60BBD29A70BBD29A80BBD29C4291A
:10038800822800300A128A11E0230A128A110130E9
:100398000A128A11E0230A128A1108300A128A11F5
:1003A800E0230A128A1100300A128A11E0230A1285
:1003B8008A110930F8000A128A1184240A128A1153
:1003C800B5290A128A110C28F400741CEC29ED29AD
:1003D800022A831203132E08840083172F1C831309
:1003E8000130F20031080739013EFC290310F20DF3
:1003F800FF3E031DFA2972088004172A831203138B
:100408002E08840083172F1C83130130F200310853
:100418000739013E112A0310F20DFF3E031D0F2A72
:100428007208FF3A8005F41C1A2A1B2A312A2E0862
:10043800840083172F1C83130130F200310CF30062
:10044800F30C730C0739013E2B2A0310F20DFF3E03
:10045800031D292A72088004472A2E08840083175E
:100468002F1C83130130F200310CF300F30C730CD2
:100478000739013E412A0310F20DFF3E031D3F2AB2
:100488007208FF3A8005741D4A2A4B2A5E2A2E08F4
:10049800840083172F1C83130130F20032080739B8
:1004A800013E582A0310F20DFF3E031D562A72081A
:1004B8008004712A2E08840083172F1C83130130AF
:1004C800F20032080739013E6B2A0310F20DFF3E95
:1004D800031D692A7208FF3A8005F41D742A752ADB
:1004E8008B2A2E08840083172F1C83130130F200F7
:1004F800320CF300F30C730C0739013E852A031004
:10050800F20DFF3E031D832A72088004A12A2E08DB
:10051800840083172F1C83130130F200320CF30080
:10052800F30C730C0739013E9B2A0310F20DFF3EB2
:10053800031D992A7208FF3A800508002E308400AE
:1005480083120313200883138000840A2108800083
:10055800840A22088000840A23088000840A240868
:10056800800000302F06031DBB2A05302E06031D10
:10057800BE2ABF2AC32A831603138501DE2A003048
:100588002F06031DC92A06302E06031DCC2ACD2AA4
:10059800D12A831603138601DE2A00302F06031D95
:1005A800D72A07302E06031DDA2ADB2A4D2B83169D
:1005B800031387011A30F900F830F800F80BE22A23
:1005C800F90BE22A000003300A128A11E0230A120A
:1005D8008A110730F9007D30F800F80BF12AF90B81
:1005E800F12A03300A128A11E0230A128A111530FF
:1005F800F900C630F800F80BFF2AF90BFF2A0000B3
:1006080003300A128A11E0230A128A1102300A12F0
:100618008A11E0230A128A1102300A128A11E02391
:100628000A128A1108300A128A11E0230A128A1162
:1006380000300A128A11E0230A128A1106300A12BF
:100648008A11E0230A128A110830FA007A157A080A
:10065800F80004300310F80CFF3E031D2E2B780819
:100668000F390A128A11E0230A128A117A080F39FF
:100678000A128A11E0230A128A1100300A128A111A
:10068800E0230A128A1101300A128A11E0230A12A1
:100698008A110800F700831203132E0884008317B9
:1006A8002F1C83130130F50030080739013E5E2BFB
:1006B8000310F50DFF3E031D5C2B750880047708B9
:1006C800F50004300310F50CFF3E031D662B75087A
:1006D8000F390A128A11E8210A128A1183120313A8
:1006E8002E08840083172F1C83130130F500300C6B
:1006F800F600F60C760C0739013E842B0310F50D35
:10070800FF3E031D822B750880040D30F500F50BA4
:100718008B2B831203132E08840083172F1C83133B
:100728000130F500300CF600F60C760C0739013E66
:100738009F2B0310F50DFF3E031D9D2B7508FF3AF7
:10074800800577080F390A128A11E8210A128A11DE
:10075800831203132E08840083172F1C8313013080
:10076800F500300CF600F60C760C0739013EBE2B6E
:100778000310F50DFF3E031DBC2B750880040D30DA
:10078800F500F50BC52B831203132E08840083177D
:100798002F1C83130130F500300CF600F60C760C94
:1007A8000739013ED92B0310F50DFF3E031DD72B4A
:1007B8007508FF3A80050800F700831203132E0816
:1007C800840083172F1C83130130F5003008073984
:1007D800013EF02B0310F50DFF3E031DEE2B7508AF
:1007E800FF3A800577080A128A11E8210A128A114D
:1007F800831203132E08840083172F1C83130130E0
:10080800F500300CF600F60C760C0739013E0E2C7C
:100818000310F50DFF3E031D0C2C750880040630EF
:10082800F6003030F500F50B172CF60B172C0000EE
:10083800831203132E08840083172F1C831301309F
:10084800F500300CF600F60C760C0739013E2E2C1C
:100858000310F50DFF3E031D2C2C7508FF3A80058B
:1008680008000730FA057A0883120313A000033042
:100878000310A00DFF3E031D3C2CF0302005A10005
:1008880040302104A2000030A3000430A400230D4E
:10089800A30CA20CA40B4B2C22080A128A11E023E9
:1008A8000A128A117A0883120313A0000230031077
:1008B800A00DFF3E031D5B2C0310200D0F3940389F
:1008C8000A128A11E0230A128A1183120313A5015E
:1008D80025087B0784000A128A11A8240A128A11A3
:1008E8000A128A114E230A128A1101308312031345
:1008F800A50708302502031C822C832C6C2C0800C9
:10090800F901FA019A2C7908780784000A128A11E9
:10091800A8240A128A110A128A114E230A128A116D
:100928000130F9070318FA0A0030FA07790878073E
:1009380084000A128A11A8240A128A11003A031D97
:10094800A62CA72C872C080004308A000408840AE7
:10095800820700340E341F341B341F341F341F34F5
:1009680015340034203420342034573441344B3487
:1009780041342034573441344B344134203420340A
:10098800203400348B1CC92CCA2CD52C8312031399
:1009980033080319D02CD22C0130D32C0030B300EB
:1009A8008B1071088A00700E8300FE0E7E0E0900FF
:0A09B800073400341A342C343E34A6
:04400E00F12FFF3F50
:00000001FF
