:060000000A128A11FC2F18
:100D78000330831603178800890101308312031397
:100D88009F008030831603139F0005148514080004
:100D98003130831603138F008316031789018316D6
:100DA800031307159B3092000C308312031397002E
:100DB800950191018C10073092008C1CE42EE52ED1
:100DC800E12E83160313071108007108F300700859
:100DD800F2000310F30CF20C0310F30CF20C72087F
:100DE80083120313950070080139F200F20E1708F8
:100DF8007206EF39720697007108F3007008F20066
:100E08000310F30CF20C72080139F400F40EF40D1F
:100E180017087406DF39740697000800F4000D30CF
:100E2800F200F20B152F8330831203139F05740809
:100E3800F20001300310F20DFF3E031D1E2F0310B8
:100E4800720D9F040630F3003030F200F20B2A2FA7
:100E5800F30B2A2F0000831203139F149F18352FBA
:100E6800362F322F1E08F100831603131E08F000D8
:100E780008000A128A11BC260A128A110A128A115B
:100E8800CC260A128A1100300A128A1112270A1275
:100E98008A11710883120313A5007008A40000309A
:100EA800F3000030F2000330F100FF30F0002408B6
:100EB800A0002508A100A201A30105300310A00D80
:100EC800A10DA20DA30DFF3E031D622F2308F700FD
:100ED8002208F6002108F5002008F4000A128A11F9
:100EE80098270A128A1170081F3E83120313A6005E
:100EF80071080318013E003EA7002708F1002608E4
:100F0800F0000A128A11E9260A128A113430831273
:100F18000313A100F130A000A00B902FA10B902F7C
:100F2800472F0A128A1100280030FC000030FB000D
:100F38000030FA000030F90073087204710470047C
:100F48000319A72FA82FF32F0130FD00B62F01306A
:100F5800F8000310F00DF10DF20DF30DF80BAD2FA5
:100F68000130FD07F31FB92FBA2FAB2F0130F8005E
:100F78000310F90DFA0DFB0DFC0DF80BBC2F7308CF
:100F88007702031DD12F72087602031DD12F710835
:100F98007502031DD12F70087402031CD42FD52F9E
:100FA800E42F7008F4027108031C710FF50272082F
:100FB800031C720FF6027308031C730FF7027914EF
:100FC80001300310F30CF20CF10CF00CFF3E031D82
:100FD800E52F0130FD02031DF22FF32FBA2F7C08F5
:100FE800F3007B08F2007A08F1007908F0000800A5
:080FF80083010A128A113D2F4A
:04400E00F42FFF3F4D
:00000001FF
