:060000000A128A11D32F41
:10073400073400341A342C343E34F5008312031386
:10074400200884008317211C83130130F30022083E
:100754000739013EAF2B0310F30DFF3E031DAD2BF4
:100764007308FF3A800575080A128A1149260A128D
:100774008A1183120313200884008317211C831316
:100784000130F300220CF400F40C740C0739013E20
:10079400CD2B0310F30DFF3E031DCB2B73088004F8
:1007A4000630F4003030F300F30BD62BF40BD62BC9
:1007B400000083120313200884008317211C831371
:1007C4000130F300220CF400F40C740C0739013EE0
:1007D400ED2B0310F30DFF3E031DEB2B7308FF3AC3
:1007E4008005080083160317880189018316031303
:1007F40088010F308312031388000F30831603130C
:10080400860001087F3981002E308400831203138F
:10081400340883138000840A35088000840A36086B
:100824008000840A37088000840A38088000763003
:1008340084002E088000840A2F088000840A30086F
:100844008000840A31088000840A320880000A1279
:100854008A119D250A128A1100300A128A119F23D7
:100864000A128A1101300A128A119F230A128A116C
:100874000A128A1105250A128A1183120313B3007E
:1008840033080319462C472C3A2C33080A128A11D0
:1008940003270A128A11831203138801061C532C9E
:1008A400542C502C861C572C582C502C061D5B2C79
:1008B4005C2C502C861D5F2C602C502C0330831232
:1008C4000313AD000830AC007630AB00AB0B682CE2
:1008D400AC0B682CAD0B682C00003A2C0A128A1160
:1008E4000028F50083120313200884008317211CB9
:1008F40083130130F30022080739013E832C0310CF
:10090400F30DFF3E031D812C730880047508F3006A
:1009140004300310F30CFF3E031D8B2C73080F39B6
:100924000A128A1149260A128A1183120313200813
:1009340084008317211C83130130F300220CF4007C
:10094400F40C740C0739013EA92C0310F30DFF3E7F
:10095400031DA72C730880040D30F300F30BB02C97
:1009640083120313200884008317211C831301308E
:10097400F300220CF400F40C740C0739013EC42C6F
:100984000310F30DFF3E031DC22C7308FF3A8005CC
:1009940075080F390A128A1149260A128A1183121C
:1009A4000313200884008317211C83130130F300F0
:1009B400220CF400F40C740C0739013EE32C0310F0
:1009C400F30DFF3E031DE12C730880040D30F3008A
:1009D400F30BEA2C83120313200884008317211CD1
:1009E40083130130F300220CF400F40C740C073967
:1009F400013EFE2C0310F30DFF3E031DFC2C730877
:100A0400FF3A800508000E308312031388000D306E
:100A1400F100FB30F000F00B0D2DF10B0D2D122D1C
:100A2400831203130618172D182D1A2D31309C2DFF
:100A340086181D2D1E2D202D32309C2D0619232D98
:100A4400242D262D33309C2D8619292D2A2D2C2D2D
:100A540041309C2D0D3088000D30F100FB30F0004A
:100A6400F00B322DF10B322D372D831203130618A0
:100A74003C2D3D2D3F2D34309C2D8618422D432D89
:100A8400452D35309C2D0619482D492D4B2D3630DA
:100A94009C2D86194E2D4F2D512D42309C2D0B30FF
:100AA40088000D30F100FB30F000F00B572DF10BF6
:100AB400572D5C2D831203130618612D622D642DAE
:100AC40037309C2D8618672D682D6A2D38309C2D63
:100AD40006196D2D6E2D702D39309C2D8619732DB0
:100AE400742D762D43309C2D073088000D30F10095
:100AF400FB30F000F00B7C2DF10B7C2D812D83124B
:100B040003130618862D872D892D2A309C2D8618CF
:100B14008C2D8D2D8F2D30309C2D0619922D932DDB
:100B2400952D23309C2D8619982D992D9B2D44307D
:100B34009C2D003008002030840076088313800048
:100B4400840A77088000840A78088000840A790877
:100B54008000840A7A08800000308312031321067F
:100B6400031DB62D05302006031DB92DBA2DBE2D4B
:100B7400831603138501D92D00302106031DC42DCE
:100B840006302006031DC72DC82DCC2D8316031354
:100B94008601D92D00302106031DD22D07302006F1
:100BA400031DD52DD62D482E8316031387011A3025
:100BB400FC00F830FB00FB0BDD2DFC0BDD2D0000F1
:100BC40003300A128A119F230A128A110730FC008B
:100BD4007D30FB00FB0BEC2DFC0BEC2D03300A12DB
:100BE4008A119F230A128A111530FC00C630FB00BB
:100BF400FB0BFA2DFC0BFA2D000003300A128A11AC
:100C04009F230A128A1102300A128A119F230A12A0
:100C14008A1102300A128A119F230A128A1108309B
:100C24000A128A119F230A128A1100300A128A11A9
:100C34009F230A128A1106300A128A119F230A126C
:100C44008A110830FD007D157D08FB000430031077
:100C5400FB0CFF3E031D292E7B080F390A128A1153
:100C64009F230A128A117D080F390A128A119F23C1
:100C74000A128A1100300A128A119F230A128A1159
:100C840001300A128A119F230A128A110800F20005
:100C9400721C4D2E4E2E632E8312031320088400E3
:100CA4008317211C83130130F00023080739013E08
:100CB4005D2E0310F00DFF3E031D5B2E70088004B3
:100CC400782E83120313200884008317211C8313B6
:100CD4000130F00023080739013E722E0310F00D95
:100CE400FF3E031D702E7008FF3A8005F21C7B2E18
:100CF4007C2E922E200884008317211C831301303C
:100D0400F000230CF100F10C710C0739013E8C2E1C
:100D14000310F00DFF3E031D8A2E70088004A82ED8
:100D2400200884008317211C83130130F000230C56
:100D3400F100F10C710C0739013EA22E0310F00DE5
:100D4400FF3E031DA02E7008FF3A8005721DAB2ED6
:100D5400AC2EBF2E200884008317211C831301307E
:100D6400F00024080739013EB92E0310F00DFF3EB0
:100D7400031DB72E70088004D22E20088400831728
:100D8400211C83130130F00024080739013ECC2EC6
:100D94000310F00DFF3E031DCA2E7008FF3A8005B4
:100DA400F21DD52ED62EEC2E200884008317211C8C
:100DB40083130130F000240CF100F10C710C07399D
:100DC400013EE62E0310F00DFF3E031DE42E7008D5
:100DD4008004022F200884008317211C8313013010
:100DE400F000240CF100F10C710C0739013EFC2ECB
:100DF4000310F00DFF3E031DFA2E7008FF3A800524
:100E04000800F9008312031325032604031D0B2F86
:100E14000C2F0D2FD22F29082A04031D122F132F54
:100E2400342F2708803EF60028080318013E003EB0
:100E3400F7000430F800770DF70CF60CF80B1D2FB3
:100E440076080F390A128A119F230A128A11831213
:100E540003132708803E0F390A128A119F230A12AE
:100E64008A11AA2F29032A04031D392F3A2F5B2F35
:100E74002708C03EF60028080318013E003EF7008C
:100E84000430F800770DF70CF60CF80B442F7608B5
:100E94000F390A128A119F230A128A11831203132B
:100EA4002708C03E0F390A128A119F230A128A1199
:100EB400AA2F023029062A04031D612F622F832FD3
:100EC4002708943EF60028080318013E003EF70068
:100ED4000430F800770DF70CF60CF80B6C2F76083D
:100EE4000F390A128A119F230A128A1183120313DB
:100EF4002708943E0F390A128A119F230A128A1175
:100F0400AA2F033029062A04031D892F8A2FAA2F0A
:100F14002708D43EF60028080318013E003EF700D7
:100F24000430F800770DF70CF60CF80B942F7608C4
:100F34000F390A128A119F230A128A11831203138A
:100F44002708D43E0F390A128A119F230A128A11E4
:100F540079080A128A1173240A128A110130831241
:100F64000313A7070318A80A0030A80710302706A0
:100F74002804031DBE2FBF2FC72FA701A8010130CE
:100F8400A9070318AA0A0030AA07023029062A046E
:100F9400031DCD2FCE2FD22F0130A5000030A60087
:100FA40008000A128A119A230A128A11B4000A123A
:100FB4008A119B230A128A11B5000A128A119C23F2
:100FC4000A128A11B6000A128A119D230A128A1182
:100FD400B7000A128A119E230A128A11B800A001CE
:100FE400A101A201A301A401A501A601A701A801D1
:0C0FF400A901AA0183010A128A11F42B42
:04400E00F12FFF3F50
:00000001FF
