:060000000A128A110C280F
:10000800FE00030EF2000A08F3000A128A150F2EEA
:100018000A128A110F28831603130A128A15E42577
:100028000A128A11CE000A128A15E5250A128A11C7
:10003800CF000A128A15E6250A128A11D0000A1280
:100048008A15E7250A128A11D1000A128A15E825AD
:100058000A128A11D2008313A0308400C2300A1217
:100068008A11F4270A128A1183120313E201E301A9
:10007800E401E501E601E701F601F701F801F901FC
:1000880083010A128A1148280A128A15E9250A12D8
:100098008A118316031301087F398100FF30860017
:1000A8008701831203138601870183160313011343
:1000B8008B100B168B17A03084004E088317800016
:1000C800840A4F088000840A50088000840A510876
:1000D8008000840A520880002430840083160317A5
:1000E800200883138000840A21088000840A2208DB
:1000F8008000840A23088000840A240880000A12E9
:100108008A1127240A128A110A128A15FA250A1254
:100118008A11750883160317B2007408B1000030FD
:100128000A128A1167270A128A1101300A128A11E3
:1001380067270A128A1108300A128A1167270A12D9
:100148008A1100300A128A1167270A128A11831647
:10015800031320082104031DB228B328C22917302D
:1001680083120313A4008030A5000A128A15CB2637
:100178000A128A11003083120313AF000030AE0058
:100188000330AD00FF30AC0083160317310883122B
:100198000313A00083160317320883120313A10068
:1001A800A201A3010030A7000030A6001330A5006B
:1001B8008830A4000A128A1511270A128A1183129C
:1001C80003132308B3002208B2002108B100200855
:1001D800B0000A128A11AA260A128A11831203137E
:1001E8002F0883160317B000831203132E088316F3
:1001F8000317AF00831203132D0883160317AE00ED
:10020800831203132C0883160317AD0000308312E2
:100218000313AF000030AE000330AD00E830AC008F
:1002280083160317300883120313B30083160317CA
:100238002F0883120313B200831603172E088312A4
:100248000313B100831603172D0883120313B0009C
:100258000A128A11AA260A128A11831203132D0878
:1002680083160317AA00831203132C088316031797
:10027800A900003083120313AF000030AE00003035
:10028800AD000A30AC00831603173008831203133D
:10029800A700831603172F0883120313A6008316DB
:1002A80003172E0883120313A500831603172D08BE
:1002B80083120313A4000030A3000030A20003300F
:1002C800A100E830A0000A128A15AC270A128A1188
:1002D800831203132308B3002208B2002108B100D7
:1002E8002008B0000A128A11AA260A128A1183125B
:1002F80003132D0883160317AC00831203132C086D
:1003080083160317AB000C300A128A1167270A12EA
:100318008A1100300A128A1167270A128A1190304E
:1003280083120313D8000D30D900831603172A0847
:1003380083120313DB0083160317290883120313A0
:10034800DA00831603172C0883120313DD008316C3
:1003580003172B0883120313DC000A128A15A02640
:100368000A128A11903083120313A4000130A500E9
:100378000A128A15CB260A128A11492A01308312D9
:100388000313A4008030A5000A128A15CB260A128E
:100398008A11003083120313AF000030AE0003301F
:1003A800AD00FF30AC008316031731088312031326
:1003B800A00083160317320883120313A100A201B9
:1003C800A3010030A7000030A6000030A50064306B
:1003D800A4000A128A1511270A128A11831203131C
:1003E8002308B3002208B2002108B1002008B00099
:1003F8000A128A11AA260A128A11831203132F08D5
:1004080083160317A800831203132E0883160317F5
:10041800A700831203132D0883160317A60083125F
:1004280003132C0883160317A5000C300A128A112F
:1004380067270A128A1100300A128A1167270A12DE
:100448008A11903083120313D8002030D900831604
:100458000317280883120313DD00831603172708E0
:1004680083120313DC008316031726088312031371
:10047800DB0083160317250883120313DA000A1218
:100488008A15A0260A128A11B6290330831203138B
:10049800E1000830E0007630DF00DF0B512AE00B86
:1004A800512AE10B512A000088280A128A110C28C7
:1004B80083120313480884008313000884000A1277
:1004C8008A11C8270A128A11253A031D6C2A6D2A37
:1004D800552B4808840001308007F601F7010030E9
:1004E800E700FF30F800FF30F900D001912AE71447
:1004F8004808840001308007912A0130D000912AF1
:1005080048088400000884000A128A11C8270A12C1
:100518008A11303A03197B2A812A50080319952A2F
:10052800962A842A4808A4004908A5000A128A11B4
:1005380010270A128A11831203132508F7002408CA
:10054800F600F71FA82AA92AAF2A6714F609F7099F
:10055800F60A0319F70A4808840083130008D20032
:10056800520884000A128A11C8270A128A11D10077
:10057800C52A0130D207CD2A6930D100CD2AD10150
:10058800CD2A51086C3A0319BD2A193A0319C02A11
:10059800C32A520884000A128A11C8270A128A112B
:1005A800753A031DD82AD92A2D2B022B4908840015
:1005B8000008FF00023080077F0884000008CA0096
:1005C800840A0008CB004A08CC004B08CD00CE01B5
:1005D800CF010A2B490884000008FF000430800777
:1005E8007F0884000008CC00840A0008CD00840A33
:1005F8000008CE00840A0008CF000A2B5108693A87
:100608000319DA2A053A0319EE2A0A2B4808840046
:100618005208013E8000222B4608BB004708BC0058
:100628004F08C0004E08BF004D08BE004C08BD0072
:100638000A128A1116260A128A116E2B5208840091
:100648000A128A11C8270A128A11753A0319102B3F
:100658002D2B48088400000884000A128A11C82734
:100668000A128A11253A031D3A2B3B2B4D2B4808B9
:100678008400013080072530A0000030A100460822
:10068800A2004708A3000A128A11DE240A128A115E
:100698006E2B8312031348088400013083138007EC
:1006A8006E2B48088400000884000A128A11C827A3
:1006B8000A128A11CA00CB014A08A0004B08A100FF
:1006C8004608A2004708A3000A128A11DE240A126B
:1006D8008A114D2B080083120313A000201C752BD0
:1006E800762B892B620884008317631C83130130DF
:1006F800F40065080739013E832B0310F40DFF3E13
:10070800031D812B740880049C2B620884008317C6
:10071800631C83130130F40065080739013E962BEA
:100728000310F40DFF3E031D942B7408FF3A800557
:10073800A01C9F2BA02BB62B620884008317631C78
:1007480083130130F400650CF500F50C750C0739BE
:10075800013EB02B0310F40DFF3E031DAE2B7408B1
:100768008004CC2B620884008317631C8313013038
:10077800F400650CF500F50C750C0739013EC62B25
:100788000310F40DFF3E031DC42B7408FF3A8005C7
:10079800201DCF2BD02BE32B620884008317631C0A
:1007A80083130130F40066080739013EDD2B03107E
:1007B800F40DFF3E031DDB2B74088004F62B620842
:1007C80084008317631C83130130F400660807391B
:1007D800013EF02B0310F40DFF3E031DEE2B7408B1
:1007E800FF3A8005A01DF92BFA2B102C6208840013
:1007F8008317631C83130130F400660CF500F50CB5
:10080800750C0739013E0A2C0310F40DFF3E031D39
:10081800082C74088004262C620884008317631C43
:1008280083130130F400660CF500F50C750C0739DC
:10083800013E202C0310F40DFF3E031D1E2C7408EE
:10084800FF3A8005080062308400831203132408ED
:1008580083138000840A25088000840A2608800003
:10086800840A27088000840A28088000003063066C
:10087800031D402C05306206031D432C442C482CD4
:10088800831603138501632C00306306031D4E2C69
:1008980006306206031D512C522C562C8316031366
:1008A8008601632C00306306031D5C2C073062064A
:1008B800031D5F2C602CDD2C8316031387011A306F
:1008C80083120313AA00F730A900A90B692CAA0BFD
:1008D800692C6E2C03300A128A1167270A128A11B2
:1008E800073083120313AA007C30A900A90B7A2CC5
:1008F800AA0B7A2C000003300A128A1167270A1201
:100908008A11153083120313AA00C530A900A90B58
:100918008B2CAA0B8B2C902C03300A128A11672778
:100928000A128A1102300A128A1167270A128A11DA
:1009380002300A128A1167270A128A1108300A122D
:100948008A1167270A128A1100300A128A1167274A
:100958000A128A1106300A128A1167270A128A11A6
:10096800083083120313AB002B152B08A9000430A1
:100978000310A90CFF3E031DBC2C29080F390A12CD
:100988008A1167270A128A11831203132B080F3959
:100998000A128A1167270A128A1100300A128A116C
:1009A80067270A128A1101300A128A1167270A1268
:1009B8008A11080083120313220823040319E52C63
:1009C800E62CEC2C22082304031DEB2CEC2CF32C36
:1009D80020080A128A11FC270A128A117D2D220882
:1009E800093EA40023080318013E003EA500240880
:1009F80084008317251C83130008A600840A0008B6
:100A0800A7002608270403190A2D0B2D3D2D2208BF
:100A1800093EA40023080318013E003EA50024084F
:100A280084008317251C83130008A600840A000885
:100A3800A7002208023EA80023080318013E003E32
:100A4800A900280884008317291C83130008AA001A
:100A5800840A0008AB002B08803AAC002708803ACB
:100A68002C02031D392D26082A0203183C2D3D2D82
:100A78007D2D83120313220884008317231C8313FC
:100A88000008A400840A0008A5002208023EA60067
:100A980023080318013E003EA70026088400831798
:100AA800271C831300082407A9002508A800031899
:100AB800A80A801F602DA803831203132808AA0020
:100AC8002908840083172A1C831320088000220821
:100AD800023EA40023080318013E003EA500240896
:100AE80084008317251C831301308007840A0318A8
:100AF800800A080083120313A30062088400831786
:100B0800631C83130130A10064080739013E8E2D50
:100B18000310A10DFF3E031D8C2D2108800423081E
:100B2800A10004300310A10CFF3E031D962D2108DF
:100B38000F390A128A116F230A128A1183120313BA
:100B4800620884008317631C83130130A100640CBE
:100B5800A200A20C220C0739013EB42D0310A10DEE
:100B6800FF3E031DB22D210880040C3083120313AD
:100B7800A100A10BBD2D000083120313620884009D
:100B88008317631C83130130A100640CA200A20C1C
:100B9800220C0739013ED22D0310A10DFF3E031D83
:100BA800D02D2108FF3A800523080F390A128A112F
:100BB8006F230A128A1183120313620884008317B1
:100BC800631C83130130A100640CA200A20C220C48
:100BD8000739013EF12D0310A10DFF3E031DEF2D36
:100BE800210880040C3083120313A100A10BFA2DF5
:100BF800000083120313620884008317631C8313A5
:100C08000130A100640CA200A20C220C0739013E9D
:100C18000F2E0310A10DFF3E031D0D2E2108FF3AD4
:100C280080050800013083120313C1007708C30050
:100C38007608C2001F30C4000030C50083160313B5
:100C4800C101702EFF30C4070318C50AFF30C5075D
:100C58004408A23E84000030A3000030A200003007
:100C6800A1000A30A0004008A7003F08A6003E08DF
:100C7800A5003D08A4000A128A15AC270A128A1199
:100C8800831203132008303E83138000C101FF3014
:100C9800C2070318C30AFF30C3070030AF00003093
:100CA800AE000030AD000A30AC004008B3003F0889
:100CB800B2003E08B1003D08B0000A128A11AA2607
:100CC8000A128A11831203132F08C0002E08BF00CE
:100CD8002D08BE002C08BD008312440845040319E2
:100CE800762E772E972E40083F043E043D04031DC0
:100CF8007E2E7F2E262E4108031D832E842E262E1F
:100D08004308803AFF0080307F02031D8D2E01309A
:100D18004202031C902E912E972E83120313E7187C
:100D2800962E972E262E831203133B08B3003C08F9
:100D3800B4004408A23EB5004308B7004208B60014
:100D48000A128A1559270A128A11080000308312DC
:100D58000313B8000030B7000030B6000030B5000B
:100D68002F082E042D042C040319BB2EBC2E072F8C
:100D78000130B900CA2E0130B4000310AC0DAD0D1E
:100D8800AE0DAF0DB40BC12E0130B907AF1FCD2E7C
:100D9800CE2EBF2E0130B4000310B50DB60DB70D21
:100DA800B80DB40BD02E2F083302031DE52E2E08E4
:100DB8003202031DE52E2D083102031DE52E2C08F5
:100DC8003002031CE82EE92EF82E2C08B0022D085C
:100DD800031C2D0FB1022E08031C2E0FB2022F0880
:100DE800031C2F0FB302351401300310AF0CAE0CE7
:100DF800AD0CAC0CFF3E031DF92E0130B902031DEA
:100E0800062F072FCE2E3808AF003708AE00360859
:100E1800AD003508AC00080083120313A701A80130
:100E2800240884008313000884000A128A11C82742
:100E38000A128A112A3A031D222F232F512F240820
:100E4800840001308007250884000008FF00023074
:100E580080077F0884000008A700840A0008A8000B
:100E6800622F2808A1002708A0000A30A20000303D
:100E7800A3000A128A154E260A128A118312031336
:100E880026082007A7000030031801302107A80012
:100E98002408840001308313800724088400000894
:100EA80084000A128A11C8270A128A11D03EA600A5
:100EB8000A302602031C612F622F352F2808A5004F
:100EC8002708A400080083120313A3006208840003
:100ED8008317631C83130130A10064080739013E9E
:100EE800772F0310A10DFF3E031D752F2108FF3A30
:100EF800800523080A128A116F230A128A118312A5
:100F08000313620884008317631C83130130A10054
:100F1800640CA200A20C220C0739013E952F031085
:100F2800A10DFF3E031D932F210880040630831274
:100F38000313A2002F30A100A10BA02FA20BA02FFA
:100F4800A52F83120313620884008317631C83137D
:100F58000130A100640CA200A20C220C0739013E4A
:100F6800B72F0310A10DFF3E031DB52F2108FF3A2F
:100F780080050800FF1BC82F83137F1883170008FC
:100F8800840A0319FF0A080007308A000408840A43
:100F98008207003450346F347234633465346E34ED
:100FA800743461346A3465343A3400342534753421
:100FB8002E342534303432347534203456340034E9
:100FC80056346F346C34743461346A3465343A346A
:100FD800003425346C3475342034253425340034F9
:100FE80064008001840A0406031900340406F52FFE
:020FF8000800EF
:101BC800073400341A342C343E340130831603179A
:101BD80088008901831603130514813083120313C7
:101BE8009F008030831603139F0008000230831281
:101BF8000313A000A00BFE2D0000831203139F14F3
:101C08009F18072E082E042E1E08F50083160313AE
:101C18001E08F40008008B1C122E132E242E831687
:101C280003132008210403191A2E1C2E01301D2E1F
:101C38000030F000F1017008A0007108A1008B10BD
:101C480073088A00720E8300FE0E7E0E090083124E
:101C580003135508D7003D2E5308C6005408C70083
:101C68005730C8005608C9000A128A115C220A12A5
:101C78008A1583120313570884000A128A11C82789
:101C88000A128A15003A031D4A2E4B2E302ED30114
:101C9800D4010800F401F50183120313201C552E0A
:101CA800562E5C2E2208F4070318F50A2308F507B8
:101CB80001300310A20DA30DFF3E031D5D2E013060
:101CC8000310A10CA00CFF3E031D642E2008210464
:101CD800031D6F2E702E502E7508A1007408A000E9
:101CE800080083120313B101B201922E3008F400E8
:101CF800F5017408A0007508A1002E08A2002F089D
:101D0800A3000A128A11DE240A128A1501308312EE
:101D18000313B1070318B20A0030B20731082D07C0
:101D2800F4007408840083130008B0003008031D11
:101D38009E2E9F2E7A2E08005A3083160313C20057
:101D480083120313580883160313C3000130C40019
:101D5800C501C601CC01CD01C33083120313D300E2
:101D68000030D4005908D500C230D6000A128A15AE
:101D78002B260A128A1583160313450883120313A8
:101D88005807DE005E08840083178001080083126C
:101D98000313A901AA01F42E29082407A70025087E
:101DA800A6000318A60AA91FDA2EA6038312031396
:101DB8002608A8002808FF00270884000A128A11AC
:101DC800BE270A128A150A128A117E250A128A1556
:101DD800013083120313A9070318AA0A0030AA07BF
:101DE80029082407A7002508A6000318A60AA91F82
:101DF800FE2EA603831203132608A8002808FF0056
:101E0800270884000A128A11BE270A128A15003A86
:101E1800031D0F2F102FD02E08000030831203133C
:101E2800AB000030AA000030A9000030A800201C38
:101E38001E2F1F2F362F2408A80725080311031863
:101E4800013E0319282FA907260803110318013E8C
:101E580003192F2FAA07270803110318013E031996
:101E6800362FAB070130F4000310A40DA50DA60D05
:101E7800A70DF40B382F01300310A30CA20CA10CF2
:101E8800A00CFF3E031D402F230822042104200438
:101E9800031D4F2F502F1B2F2B08A3002A08A20029
:101EA8002908A1002808A000080083120313671C52
:101EB8005E2F5F2F6A2F3508AD003308AE00340857
:101EC800AF000A128A1575260A128A15831203139F
:101ED800B71F6F2F702F722FB601B701B901BA0162
:101EE8008C2F203083120313A0000030A100330888
:101EF800A2003408A3000A128A11DE240A128A15E5
:101F0800013083120313B9070318BA0A0030BA075D
:101F18003A08803AB8003708803A3802031D962FED
:101F280036083902031C992F9A2F752F8312031331
:101F380067189F2FA02FAB2F3508AD003308AE00D0
:101F48003408AF000A128A1575260A128A15080085
:101F58008312031323082204210420040319B52F34
:101F6800B62FF72F0130F500C42F0130F40003100D
:101F7800A00DA10DA20DA30DF40BBB2F0130F50789
:101F8800A31FC72FC82FB92F23082702031DD62F39
:101F980022082602031DD62F21082502031DD62F4D
:101FA80020082402031CD92FDA2FE82F2008A402C6
:101FB8002108031C210FA5022208031C220FA602D8
:101FC8002308031C230FA70201300310A30CA20C43
:101FD800A10CA00CFF3E031DE92F0130F502031DE3
:101FE800F62FF72FC82F2708A3002608A2002508D8
:081FF800A1002408A00008006C
:04400E00F22FFF3F4F
:00000001FF
