:060000000A128A11FC2F18
:100E180083160317880189013130831603138F0065
:100E280007159B3092000C3083120313970095012D
:100E380091018C10073092008C1C232F242F202F17
:100E480083160313071108007108F3007008F200F5
:100E58000310F30CF20C0310F30CF20C720883125B
:100E68000313950070080139F200F20E1708720694
:100E7800EF39720697007108F3007008F20003104A
:100E8800F30CF20C72080139F400F40EF40D170893
:100E98007406DF39740697000800FB00B430F000D0
:100EA8000030F1007B08F700F8010530FF0003105F
:100EB800F70DF80DFF0B5B2F7708F2007808F300A9
:100EC8000A128A11BA270A128A1170081F3EF900FD
:100ED80071080318013E003EFA007A08F10079080B
:100EE800F0000A128A1128270A128A1108000A1229
:100EF8008A110C270A128A1183120313A0012008F1
:100F08000A128A1151270A128A110530FD00DD30B4
:100F1800FC00FC0B8D2FFD0B8D2F922F01308312BF
:100F28000313A007B5302002031C9B2F9C2F832F8F
:100F3800B430A00020080A128A1151270A128A1117
:100F48000530FD00DD30FC00FC0BA82FFD0BA82FA1
:100F5800AD2F013083120313A0022008031DB52F03
:100F6800B62F9E2F802F0A128A110028F401F5014E
:100F7800700871040319C12FC22FF72F0130F60032
:100F8800CE2F01300310F00DF10DFF3E031DC62FCB
:100F98000130F607F11FD12FD22FC52F01300310D2
:100FA800F40DF50DFF3E031DD32F71087302031DC9
:100FB800DF2F70087202031CE22FE32FEA2F70085C
:100FC800F2027108031CF303F302741401300310D6
:100FD800F10CF00CFF3E031DEB2F0130F602031D50
:100FE800F62FF72FD22F7508F1007408F0000800CB
:080FF80083010A128A117B2F0C
:04400E00F42FFF3F4D
:00000001FF
