:060000000A128A11FC2F18
:100EE600831603130715FF3092000C308312031389
:100EF60097009501CF3097058C10073092008C1C17
:100F0600852F862F822F83160313071108000430BE
:100F16007102003003197002031C922F932F972F32
:100F2600FF30F0000330F1007108F3007008F200A2
:100F36000310F30CF20C0310F30CF20C720883127C
:100F46000313950070080339F200F20E17087206B3
:100F5600CF39720697000800F801F9010130F70051
:100F66000A128A1173270A128A1177080319BC2FED
:100F7600BD2FD22F0530F8070318F90A0030F907FC
:100F860000307902FF3003197802031CCB2FCC2FD7
:100F9600E22FFF30F8000030F900F701E22F0530AC
:100FA600F8020030031CF903F90278087904031DDE
:100FB600DD2FDE2FE22FF801F9010130F700790865
:100FC600F1007808F0000A128A118A270A128A119B
:100FD6000230F6000430F500BA30F400F40BF12FBD
:100FE600F50BF12FF60BF12F0000B82F0A128A111C
:0A0FF600002883010A128A11AF2FB0
:04400E00F12FFF3F50
:00000001FF
