:060000000A128A110C280F
:10000800FE00030EF0000A08F1000A128A15EC2E11
:100018000A128A110F28831603130A128A156726F3
:100028000A128A11E3000A128A1568260A128A112E
:10003800E4000A128A1569260A128A11E5000A12D2
:100048008A156A260A128A11E6000A128A156B2690
:100058000A128A11E7008313A0308400C6300A12FE
:100068008A156C260A128A11613084006E300A12D1
:100078008A156C260A128A11FB0183010A128A1159
:1000880045280A128A1574260A128A11D03084006B
:1000980083160313630883138000840A64088000AE
:1000A800840A65088000840A66088000840A670854
:1000B80080002030840050088000840A51088000A5
:1000C800840A52088000840A53088000840A54086D
:1000D80080000A128A1177230A128A110A128A15D5
:1000E80083260A128A1100300A128A1190260A12EF
:1000F8008A1101300A128A1190260A128A110830D0
:100108000A128A1190260A128A1100300A128A11DC
:1001180090260A128A111530F8008030F9000A1268
:100128008A15BA270A128A110C300A128A119026E7
:100138000A128A110A300A128A1190260A128A11A2
:100148001E30F8008030F9000A128A15BA270A1200
:100158008A110A128A1594260A128A1173088316BC
:100168000313D6007208D500003083120313A700CA
:100178000030A6000330A500FF30A4008316031347
:100188005508F2005608F300F401F5010030F900B3
:100198000030F8001330F7008830F6000A128A1190
:1001A8008C270A128A11750883120313AB0074088E
:1001B800AA007308A9007208A8000A128A11D32598
:1001C8000A128A1183120313270883160313E20005
:1001D80083120313260883160313E1008312031303
:1001E800250883160313E0008312031324088316DB
:1001F8000313DF00003083120313A7000030A600AA
:100208000330A500E830A4008316031362088312A4
:100218000313AB0083160313610883120313AA00A8
:1002280083160313600883120313A90083160313AC
:100238005F0883120313A8000A128A11D3250A1231
:100248008A1183120313250883160313D800831217
:100258000313240883160313D700003083120313F3
:10026800A7000030A6000030A5000A30A4008316BD
:1002780003136208F9006108F8006008F7005F08D6
:10028800F6000030F5000030F4000330F300E830E9
:10029800F2000A128A11E5260A128A1175088312D9
:1002A8000313AB007408AA007308A9007208A80019
:1002B8000A128A11D3250A128A11831203132508F8
:1002C80083160313DA008312031324088316031317
:1002D800D90008300A128A1190260A128A110930A8
:1002E8000A128A1190260A128A11C6308312031341
:1002F800CE000130CF00831603135808831203136E
:10030800D10083160313570883120313D0008316F2
:1003180003135A0883120313D300831603135908CF
:1003280083120313D2000A128A15C9260A128A11E7
:10033800C630F8000030F9000A128A15BA270A12E6
:100348008A110C300A128A1190260A128A110A3070
:100358000A128A1190260A128A113C30F2000030E3
:10036800F300831203136D08F5006C08F4000A12F9
:100378008A1578270A128A11730883160313DC007A
:100388007208DB003C30F2000030F30083120313E4
:100398006D08F5006C08F4000A128A1540270A1245
:1003A8008A11730883160313DE007208DD00C0305B
:1003B80083120313CE000B30CF00831603135C089F
:1003C80083120313D100831603135B0883120313EC
:1003D800D000831603135E0883120313D300831619
:1003E80003135D0883120313D2000A128A15C92663
:1003F8000A128A11C030F8000030F9000A128A1572
:10040800BA270A128A11AD280A128A110C28F40098
:10041800741C0F2A102A252A8312031361088400EA
:100428008317621C83130130F20064080739013E08
:100438001F2A0310F20DFF3E031D1D2A72088004B7
:100448003A2A83120313610884008317621C8313FA
:100458000130F20064080739013E342A0310F20D16
:10046800FF3E031D322A7208FF3A8005F41C3D2A1C
:100478003E2A542A610884008317621C83130130C2
:10048800F200640CF300F30C730C0739013E4E2A9A
:100498000310F20DFF3E031D4C2A720880046A2ADD
:1004A800610884008317621C83130130F200640C16
:1004B800F300F30C730C0739013E642A0310F20DA4
:1004C800FF3E031D622A7208FF3A8005741D6D2ADB
:1004D8006E2A812A610884008317621C8313013005
:1004E800F20065080739013E7B2A0310F20DFF3E32
:1004F800031D792A72088004942A610884008317EE
:10050800621C83130130F20065080739013E8E2A08
:100518000310F20DFF3E031D8C2A7208FF3A800576
:10052800F41D972A982AAE2A610884008317621C52
:1005380083130130F200650CF300F30C730C0739D8
:10054800013EA82A0310F20DFF3E031DA62A7208D9
:100558008004C42A610884008317621C8313013055
:10056800F200650CF300F30C730C0739013EBE2A48
:100578000310F20DFF3E031DBC2A7208FF3A8005E6
:100588000800831203133F088400831300088400C3
:100598000A128A150A200A128A11253A031DD52A39
:1005A800D62A5D2B3F08840001308007E601E70169
:1005B8000030FB00FF30E800FF30E900C701FA2AED
:1005C800FB143F08840001308007FA2A0130C70075
:1005D800FA2A3F088400000884000A128A150A20B3
:1005E8000A128A11303A0319E42AEA2A4708031939
:1005F800FE2AFF2AED2A3F08F8004008F9000A12EF
:100608008A1139260A128A11790883120313E7001E
:100618007808E600E71F112B122B182B7B14E6092C
:10062800E709E60A0319E70A3F088400831300086C
:10063800C800480884000A128A150A200A128A117A
:10064800753A031D282B292B552B400884000008D8
:10065800C10002308007410884000008C300840AF2
:100668000008C4003F0884004808013E80004A2B67
:100678003D08B4003E08B5004408B7004308B6007A
:100688000A128A1155250A128A11762B4808840005
:100698000A128A150A200A128A11753A03193C2B84
:1006A800552B831203133F088400013083138007FE
:1006B800762B3F088400000884000A128A150A2055
:1006C8000A128A11C100C2014108F2004208F3006F
:1006D8003D08F4003E08F5000A128A1123240A1284
:1006E8008A11552B080061308400831203132008F7
:1006F80083138000840A21088000840A220880006D
:10070800840A23088000840A2408800000306206D6
:10071800031D902B05306106031D932B942B982BFA
:10072800831603138501B32B00306206031D9E2B2D
:1007380006306106031DA12BA22BA62B83160313DB
:100748008601B32B00306206031DAC2B073061060F
:10075800031DAF2BB02B222C8316031387011A30ED
:10076800F900F830F800F80BB72BF90BB72B00009D
:1007780003300A128A1190260A128A110730F900EA
:100788007D30F800F80BC62BF90BC62B03300A1284
:100798008A1190260A128A111530F900C630F8001D
:1007A800F80BD42BF90BD42B000003300A128A1152
:1007B80090260A128A1102300A128A1190260A1209
:1007C8008A1102300A128A1190260A128A110830F8
:1007D8000A128A1190260A128A1100300A128A1106
:1007E80090260A128A1106300A128A1190260A12D5
:1007F8008A110830FA007A157A08F80004300310D4
:10080800F80CFF3E031D032C78080F390A128A11D1
:1008180090260A128A117A080F390A128A1190262C
:100828000A128A1100300A128A1190260A128A11B5
:1008380001300A128A1190260A128A1108007408D7
:1008480075040319282C292C2F2C74087504031DF2
:100858002E2C2F2C362C72080A128A11FD270A1208
:100868008A11C22C7408093E83120313A00075086C
:100878000318013E003EA100200884008317211CB4
:1008880083130008A200840A0008A3002208230496
:1008980003194F2C502C822C7408093EA0007508AF
:1008A8000318013E003EA100200884008317211C84
:1008B80083130008A200840A0008A3007408023EFB
:1008C800A40075080318013E003EA5002408840012
:1008D8008317251C83130008A600840A0008A700B4
:1008E8002708803AA8002308803A2802031D7E2C96
:1008F800220826020318812C822CC22C740884003A
:100908008317751C8313000883120313A000840A3D
:100918000008A1007408023EA20075080318013EF1
:10092800003EA300220884008317231C83130008B9
:100938002007A5002108A4000318A40A801FA52CDD
:10094800A403831203132408A60025088400831730
:10095800261C8313720880007408023EA0007508E4
:100968000318013E003EA100200884008317211CC3
:10097800831301308007840A0318800A0800F700EF
:1009880083120313610884008317621C83130130E8
:10099800F50063080739013ED32C0310F50DFF3E1F
:1009A800031DD12C750880047708F5000430031066
:1009B800F50CFF3E031DDB2C75080F390A128A114E
:1009C8000B220A128A118312031361088400831709
:1009D800621C83130130F500630CF600F60C760CEC
:1009E8000739013EF92C0310F50DFF3E031DF72CC6
:1009F800750880040D30F500F50B002D83120313E4
:100A0800610884008317621C83130130F500630CAE
:100A1800F600F60C760C0739013E142D0310F50D7F
:100A2800FF3E031D122D7508FF3A800577080F3920
:100A38000A128A110B220A128A11831203136108FF
:100A480084008317621C83130130F500630CF600E1
:100A5800F60C760C0739013E332D0310F50DFF3ED9
:100A6800031D312D750880040D30F500F50B3A2D66
:100A780083120313610884008317621C83130130F7
:100A8800F500630CF600F60C760C0739013E4E2D86
:100A98000310F50DFF3E031D4C2D7508FF3A800528
:100AA8000800013083120313B8006708BA0066080B
:100AB800B9001F30BB000030BC0083160313BF0110
:100AC8009D2DFF3083120313BB070318BC0AFF30A8
:100AD800BC073B08A03E84000A30F2000030F30057
:100AE8003708F5003608F4000A128A1540270A125A
:100AF8008A117208303E8313800083120313B801F1
:100B0800FF30B9070318BA0AFF30BA070A30F200F3
:100B18000030F3003708F5003608F4000A128A1589
:100B280078270A128A11730883120313B700720810
:100B3800B60083123B083C040319A32DA42DC02D35
:100B480036083704031DA92DAA2D652D3808031D65
:100B5800AE2DAF2D652D3A08803AFF0080307F0218
:100B6800031DB82D01303902031CBB2DBC2DC02D2F
:100B7800FB18BF2DC02D652D831203133408AC005C
:100B88003508AD003B08A03EAE003A08B000390871
:100B9800AF000A128A1139270A128A110800003098
:100BA80083120313B0000030AF000030AE000030F5
:100BB800AD0027082604250424040319E42DE52D97
:100BC800302E0130B100F32D0130AC000310A40D1C
:100BD800A50DA60DA70DAC0BEA2D0130B107A71F77
:100BE800F62DF72DE82D0130AC000310AD0DAE0D3C
:100BF800AF0DB00DAC0BF92D27082B02031D0E2EDF
:100C080026082A02031D0E2E25082902031D0E2E72
:100C180024082802031C112E122E212E2408A802B3
:100C28002508031C250FA9022608031C260FAA0263
:100C38002708031C270FAB022D1401300310A70C43
:100C4800A60CA50CA40CFF3E031D222E0130B102F8
:100C5800031D2F2E302EF72D3008A7002F08A600D1
:100C68002E08A5002D08A400080083120313A10173
:100C7800A201780884008313000884000A128A15E8
:100C88000A200A128A112A3A031D4B2E4C2E7A2E5C
:100C98007808840001308007790884000008FA0089
:100CA800023080077A0884000008A100840A00083E
:100CB800A2008B2E2208F3002108F2000A30F4006B
:100CC8000030F5000A128A11D8270A128A118312F5
:100CD800031320087207A1000030031801307307BE
:100CE800A200780884000130831380077808840004
:100CF800000884000A128A150A200A128A11D03EB6
:100D0800A0000A302002031C8A2E8B2E5E2E220899
:100D1800F9002108F8000800F7008312031361089E
:100D280084008317621C83130130F50063080739B8
:100D3800013EA02E0310F50DFF3E031D9E2E7508E3
:100D4800FF3A800577080A128A110B220A128A11C3
:100D580083120313610884008317621C8313013014
:100D6800F500630CF600F60C760C0739013EBE2E32
:100D78000310F50DFF3E031DBC2E750880040630D8
:100D8800F6003030F500F50BC72EF60BC72E000025
:100D980083120313610884008317621C83130130D4
:100DA800F500630CF600F60C760C0739013EDE2ED2
:100DB8000310F50DFF3E031DDC2E7508FF3A800574
:100DC800080075087404730472040319EC2EED2EE0
:100DD800302F013083120313A000FD2E0130FA00DA
:100DE8000310F20DF30DF40DF50DFA0BF42E01308E
:100DF800A007F51F002F012FF22E75087902031D99
:100E08000F2F74087802031D0F2F73087702031D34
:100E18000F2F72087602031C122F132F212F72082E
:100E2800F6027308031C730FF7027408031C740F8F
:100E3800F8027508031C750FF90201300310F50C50
:100E4800F40CF30CF20CFF3E031D222F0130A0021C
:100E5800031D2F2F302F012F7908F5007808F40093
:100E68007708F3007608F20008007B1C3C2F3D2F22
:100E78004A2F831203132E08F6002C08F7002D08BA
:100E8800F8000A128A1515270A128A118312031309
:100E9800B01F4F2F502F522FAF01B001B201B30135
:100EA8006C2F2030F2000030F300831203132C085B
:100EB800F4002D08F5000A128A1123240A128A1157
:100EC800013083120313B2070318B30A0030B307C3
:100ED8003308803AB1003008803A3102031D762F7A
:100EE8002F083202031C792F7A2F552F7B187D2F5C
:100EF8007E2F8B2F831203132E08F6002C08F70081
:100F08002D08F8000A128A1515270A128A110800F6
:100F1800003083120313A3000030A2000030A100A8
:100F28000030A000721C992F9A2FB32F76088312D5
:100F38000313A007770803110318013E0319A52F0F
:100F4800A107780803110318013E0319AC2FA20763
:100F5800790803110318013E0319B32FA3070130C1
:100F6800FA000310F60DF70DF80DF90DFA0BB52F71
:100F780001300310F50CF40CF30CF20CFF3E031DCA
:100F8800BD2F7508740473047204031DCC2FCD2F74
:100F9800962F831203132308F5002208F400210872
:100FA800F3002008F2000800F601F701721CDD2F9B
:100FB800DE2FE42F7408F6070318F70A7508F707F9
:100FC80001300310F40DF50DFF3E031DE52F013030
:100FD8000310F30CF20CFF3E031DEC2F7208730490
:100FE800031DF72FF82FDA2F7708F3007608F200A1
:040FF80008000800E5
:10100000FF1B0A2883137F1883170008840A03191B
:10101000FF0A080008308A000408840A82070034A6
:10102000253475342E34253430343234753420343C
:101030005634003425343034323475343A3425345F
:10104000303432347534003456346F346C34743484
:1010500061346A3465343A340034303430343A34EC
:061060003034303400348E
:101CCE00073400341A342C343E3464008001840A04
:101CDE0004060319003404066D2E313083120313EB
:101CEE0090009E308F0058308E000C108316031318
:101CFE000C140B178B17080001308316031788007E
:101D0E0089018316031305148130831203139F0078
:101D1E008030831603139F0008000330F400F40B89
:101D2E00962E831203139F149F189E2E9F2E9B2E6A
:101D3E001E08F300831603131E08F2000800831218
:101D4E0003134B08CD00B82E4908BD004A08BE004B
:101D5E004D30BF004C08C0000A128A11C5220A126B
:101D6E008A15831203134D0884000A128A150A205D
:101D7E000A128A15003A031DC52EC62EAB2EC901B6
:101D8E00CA010800503083120313D5004E08D60046
:101D9E000030D700D801D901DF01E0015630C9006B
:101DAE000030CA004F08CB005530CC000A128A15FD
:101DBE00A6260A128A158312031358084E07D4005A
:101DCE0054088400831380010800831203130C1C33
:101DDE00F12EF22E0E2F0130EA070318EB0A003017
:101DEE00EB0700306B020B3003196A02031C002F45
:101DFE00012F092F0130EC070318ED0A0030ED0713
:101E0E00EA01EB019E308F0058308E000C107108E5
:101E1E008A00700E8300FE0E7E0E090083120313DD
:101E2E00AA01AB01322F2908F900FA017908F20054
:101E3E007A08F3007708F4007808F5000A128A1180
:101E4E0023240A128A15013083120313AA070318DA
:101E5E00AB0A0030AB072A087607F9007908840030
:101E6E0083130008A9002908031D3E2F3F2F1A2FA8
:101E7E000800720873040319452F462F732F013083
:101E8E00F600522F01300310F20DF30DFF3E031D2D
:101E9E004A2F0130F607F31F552F562F492F73087F
:101EAE007502031D5C2F72087402031C5F2F602FD6
:101EBE00662F7208F4027308031CF503F502013055
:101ECE000310F30CF20CFF3E031D672F0130F602D8
:101EDE00031D722F732F562F7508F3007408F2002E
:101EEE000800F601F7017208730403197F2F802F83
:101EFE00B52F0130F8008C2F01300310F20DF30DC9
:101F0E00FF3E031D842F0130F807F31F8F2F902FF4
:101F1E00832F01300310F60DF70DFF3E031D912F99
:101F2E0073087502031D9D2F72087402031CA02FE7
:101F3E00A12FA82F7208F4027308031CF503F502F3
:101F4E00761401300310F30CF20CFF3E031DA92F83
:101F5E000130F802031DB42FB52F902F7708F30030
:101F6E007608F200080083120313A301A401E32FE5
:101F7E0023087807A1007908A0000318A00AA31F60
:101F8E00C92FA003831203132008A2002208FF000A
:101F9E00210884000A128A1500200A128A150A12D4
:101FAE008A11C3240A128A15013083120313A30760
:101FBE000318A40A0030A40723087807A1007908A3
:101FCE00A0000318A00AA31FED2FA0038312031372
:101FDE002008A2002208FF00210884000A128A1598
:101FEE0000200A128A15003A031DFE2FFF2FBF2F65
:021FFE000800D9
:04400E00F12FFF3F50
:00000001FF
