:100000000A128A11FB2F00308A000408840A820732
:1000100000343F3406345B344F3466346D347D3401
:0600200007347F346F3449
:100CEE00FC000A30F0000030F1007C08F800F90139
:100CFE007808F2007908F3000A128A11B1260A1256
:100D0E008A117008FA000A30F0000030F1007C08F9
:100D1E00F800F9017808F2007908F3000A128A1136
:100D2E0008270A128A117008FB007A08013E840017
:100D3E000A128A1103200A128A11831203138800E1
:100D4E007B08013E84000A128A1103200A128A11BE
:100D5E0087000800F501F31FB52EB62EBD2EF20941
:100D6E00F309F20A0319F30A0130F500F11FC02E40
:100D7E00C12EC62EF009F109F00A0319F10A700806
:100D8E0071040319CB2ECC2EF92E0130F400D82E7F
:100D9E0001300310F00DF10DFF3E031DD02E01307A
:100DAE00F407F11FDB2EDC2ECF2E71087302031D0C
:100DBE00E22E70087202031CE52EE62EEC2E700851
:100DCE00F2027108031CF303F30201300310F10C5D
:100DDE00F00CFF3E031DED2E0130F402031DF82E24
:100DEE00F92EDC2E75080319FD2EFE2E032FF209A7
:100DFE00F309F20A0319F30A7308F1007208F000FE
:100E0E000800F501F11F0C2F0D2F142FF009F10919
:100E1E00F00A0319F10A0130F500F31F172F182FEE
:100E2E001F2FF209F309F20A0319F30A0130F5062E
:100E3E00F601F701700871040319262F272F5C2F76
:100E4E000130F400332F01300310F00DF10DFF3E91
:100E5E00031D2B2F0130F407F11F362F372F2A2FAA
:100E6E0001300310F60DF70DFF3E031D382F7108EC
:100E7E007302031D442F70087202031C472F482F64
:100E8E004F2F7008F2027108031CF303F30276145D
:100E9E0001300310F10CF00CFF3E031D502F0130FA
:100EAE00F402031D5B2F5C2F372F75080319602F7B
:100EBE00612F662FF609F709F60A0319F70A770864
:100ECE00F1007608F00008008316031788018901E7
:100EDE00831603138113FF30860087018801831266
:100EEE000313870188017D080A128A1177260A12D8
:100EFE008A11831203130618852F862FA32F3430E1
:100F0E0083120313A100F130A000A00B8C2FA10BB4
:100F1E008C2F831203130618952F962FA32FFD01E6
:100F2E0000300A128A1177260A128A1183120313CD
:100F3E00061CA22FA32F9D2F8618A62FA72FCD2FCD
:100F4E00343083120313A100F130A000A00BAD2F9B
:100F5E00A10BAD2F831203138618B62FB72FCD2FEB
:100F6E0063307D020318BC2FBD2FC02F0130FD074B
:100F7E00C12FFD017D080A128A1177260A128A11E5
:100F8E0083120313861CCC2FCD2FC72F0619D02FFB
:100F9E00D12F802F343083120313A100F130A00023
:100FAE00A00BD72FA10BD72F831203130619E02FF7
:100FBE00E12F802F7D080319E52FE62FE92F013051
:100FCE00FD02EB2F6330FD007D080A128A11772691
:100FDE000A128A1183120313061DF62FF72FF12F13
:100FEE00802F0A128A110028FD0183010A128A112C
:020FFE006B2F57
:04400E00F12FFF3F50
:00000001FF
