:060000000A128A11122809
:10000800FE00030E83120313A0000408A1000A08CF
:10001800A2007F08A3000A128A1525290A128A114C
:1000280015280A128A11F7270A128A11C9000A121A
:100038008A11F8270A128A11CA000A128A11F927A6
:100048000A128A11CB000A128A11FA270A128A1197
:10005800CC000A128A11FB270A128A11CD00C401AA
:10006800C501C601C701C80183010A128A15EE2D10
:100078004208013EC20043080318013E003EC30087
:1000880040084104031D49284A286B284208803E3D
:10009800B40043080318013E003EB5000430B60022
:1000A800350DB50CB40CB60B542834080F390A12A8
:1000B8008A1544220A128A11831203134208803EC9
:1000C8000F390A128A1544220A128A11E1284003BC
:1000D8004104031D7028712892284208C03EB400CC
:1000E80043080318013E003EB5000430B600350D44
:1000F800B50CB40CB60B7B2834080F390A128A15D4
:1001080044220A128A11831203134208C03E0F398F
:100118000A128A1544220A128A11E128023040067E
:100128004104031D98289928BA284208943EB4002F
:1001380043080318013E003EB5000430B600350DF3
:10014800B50CB40CB60BA32834080F390A128A155B
:1001580044220A128A11831203134208943E0F396B
:100168000A128A1544220A128A11E128033040062D
:100178004104031DC028C128E1284208D43EB40028
:1001880043080318013E003EB5000430B600350DA3
:10019800B50CB40CB60BCB2834080F390A128A15E3
:1001A80044220A128A11831203134208D43E0F39DB
:1001B8000A128A1544220A128A1100300A128A1574
:1001C8002D230A128A11043083120313B6000C304F
:1001D800B5003330B400B40BEF28B50BEF28B60BDD
:1001E800EF28722D03303F02083003193E02031C2A
:1001F800FE28FF28C32903303F02853003193E0239
:10020800031807290829C3294208013EC2004308E8
:100218000318013E003EC30040084104031D152990
:10022800162937294208803EB40043080318013EC6
:10023800003EB5000430B600350DB50CB40CB60B55
:10024800202934080F390A128A1544220A128A1101
:10025800831203134208803E0F390A128A1544227A
:100268000A128A11AD2940034104031D3C293D2986
:100278005E294208C03EB40043080318013E003E10
:10028800B5000430B600350DB50CB40CB60B4729D3
:1002980034080F390A128A1544220A128A11831265
:1002A80003134208C03E0F390A128A1544220A1263
:1002B8008A11AD29023040064104031D64296529CD
:1002C80086294208943EB40043080318013E003EC4
:1002D800B5000430B600350DB50CB40CB60B6F295B
:1002E80034080F390A128A1544220A128A11831215
:1002F80003134208943E0F390A128A1544220A123F
:100308008A11AD29033040064104031D8C298D292B
:10031800AD294208D43EB40043080318013E003E0C
:10032800B5000430B600350DB50CB40CB60B9729E2
:1003380034080F390A128A1544220A128A118312C4
:1003480003134208D43E0F390A128A1544220A12AE
:100358008A1100300A128A152D230A128A110230D6
:1003680083120313B6000430B500B930B400B40BDF
:10037800BB29B50BBB29B60BBB29C229722D03308B
:100388003F02853003193E02031CCB29CC29812A60
:1003980004303F02003003193E020318D429D5293E
:1003A800812A4208023EC20043080318013E003E6B
:1003B800C30040084104031DE229E329042A420836
:1003C800803EB40043080318013E003EB5000430E7
:1003D800B600350DB50CB40CB60BED2934080F3941
:1003E8000A128A1544220A128A1183120313420838
:1003F800803E0F390A128A1544220A128A117A2A73
:1004080040034104031D092A0A2A2B2A4208C03E38
:10041800B40043080318013E003EB5000430B6009E
:10042800350DB50CB40CB60B142A34080F390A1262
:100438008A1544220A128A11831203134208C03E05
:100448000F390A128A1544220A128A117A2A0230AE
:1004580040064104031D312A322A532A4208943E99
:10046800B40043080318013E003EB5000430B6004E
:10047800350DB50CB40CB60B3C2A34080F390A12EA
:100488008A1544220A128A11831203134208943EE1
:100498000F390A128A1544220A128A117A2A03305D
:1004A80040064104031D592A5A2A7A2A4208D43E92
:1004B800B40043080318013E003EB5000430B600FE
:1004C800350DB50CB40CB60B642A34080F390A1272
:1004D8008A1544220A128A11831203134208D43E51
:1004E8000F390A128A1544220A128A1100300A1298
:1004F8008A152D230A128A11B32901303F02F430DC
:1005080003193E020318892A8A2A412B01303F0227
:10051800773003193E02031C922A932A412B420882
:10052800FF3EC20043080318013EFF3EC3004008D7
:100538004104031DA02AA12AC22A4208803EB40011
:1005480043080318013E003EB5000430B600350DDF
:10055800B50CB40CB60BAB2A34080F390A128A153D
:1005680044220A128A11831203134208803E0F396B
:100578000A128A1544220A128A11382B40034104B0
:10058800031DC72AC82AE92A4208C03EB400430806
:100598000318013E003EB5000430B600350DB50C19
:1005A800B40CB60BD22A34080F390A128A15442221
:1005B8000A128A11831203134208C03E0F390A1225
:1005C8008A1544220A128A11382B02304006410447
:1005D800031DEF2AF02A112B4208943EB400430869
:1005E8000318013E003EB5000430B600350DB50CC9
:1005F800B40CB60BFA2A34080F390A128A154422A9
:100608000A128A11831203134208943E0F390A1200
:100618008A1544220A128A11382B033040064104F5
:10062800031D172B182B382B4208D43EB40043085F
:100638000318013E003EB5000430B600350DB50C78
:10064800B40CB60B222B34080F390A128A1544222F
:100658000A128A11831203134208D43E0F390A1270
:100668008A1544220A128A1100300A128A152D238B
:100678000A128A110A128A15DB2F01303F027730DD
:1006880003193E020318492B4A2BFF2B00303F0267
:10069800FA3003193E02031C522B532BFF2B42083E
:1006A800FF3EC20043080318013EFF3EC300400856
:1006B8004104031D602B612B822B4208803EB4004D
:1006C80043080318013E003EB5000430B600350D5E
:1006D800B50CB40CB60B6B2B34080F390A128A15FB
:1006E80044220A128A11831203134208803E0F39EA
:1006F8000A128A1544220A128A11F82B400341046F
:10070800031D872B882BA92B4208C03EB400430841
:100718000318013E003EB5000430B600350DB50C97
:10072800B40CB60B922B34080F390A128A154422DE
:100738000A128A11831203134208C03E0F390A12A3
:100748008A1544220A128A11F82B02304006410405
:10075800031DAF2BB02BD12B4208943EB4004308A5
:100768000318013E003EB5000430B600350DB50C47
:10077800B40CB60BBA2B34080F390A128A15442266
:100788000A128A11831203134208943E0F390A127F
:100798008A1544220A128A11F82B033040064104B4
:1007A800031DD72BD82BF82B4208D43EB40043089E
:1007B8000318013E003EB5000430B600350DB50CF7
:1007C800B40CB60BE22B34080F390A128A154422EE
:1007D8000A128A11831203134208D43E0F390A12EF
:1007E8008A1544220A128A1100300A128A152D230A
:1007F8000A128A11E72800303F02FA3003193E0234
:100808000318072C082CBD2C00303F027D3003193B
:100818003E02031C102C112CBD2C4208FF3EC200C6
:1008280043080318013EFF3EC30040084104031D6E
:100838001E2C1F2C402C4208803EB400430803188D
:10084800013E003EB5000430B600350DB50CB40CC1
:10085800B60B292C34080F390A128A1544220A12B9
:100868008A11831203134208803E0F390A128A152F
:1008780044220A128A11B62C40034104031D452C58
:10088800462C672C4208C03EB40043080318013EBA
:10089800003EB5000430B600350DB50CB40CB60BEF
:1008A800502C34080F390A128A1544220A128A1168
:1008B800831203134208C03E0F390A128A154422D4
:1008C8000A128A11B62C023040064104031D6D2C11
:1008D8006E2C8F2C4208943EB40043080318013E46
:1008E800003EB5000430B600350DB50CB40CB60B9F
:1008F800782C34080F390A128A1544220A128A11F0
:10090800831203134208943E0F390A128A154422AF
:100918000A128A11B62C033040064104031D952C97
:10092800962CB62C4208D43EB40043080318013E66
:10093800003EB5000430B600350DB50CB40CB60B4E
:10094800A02C34080F390A128A1544220A128A1177
:10095800831203134208D43E0F390A128A1544221F
:100968000A128A1100300A128A152D230A128A11D6
:10097800B32900303F027D3003193E020318C52C0D
:10098800C62C722D4208FE3EC20043080318013EE1
:10099800FF3EC30040084104031DD32CD42CF52C82
:1009A8004208803EB40043080318013E003EB500EB
:1009B8000430B600350DB50CB40CB60BDE2C34087B
:1009C8000F390A128A1544220A128A118312031354
:1009D8004208803E0F390A128A1544220A128A11E7
:1009E8006B2D40034104031DFA2CFB2C1C2D4208DF
:1009F800C03EB40043080318013E003EB500043071
:100A0800B600350DB50CB40CB60B052D34080F39EE
:100A18000A128A1544220A128A1183120313420801
:100A2800C03E0F390A128A1544220A128A116B2D08
:100A3800023040064104031D222D232D442D420877
:100A4800943EB40043080318013E003EB50004304C
:100A5800B600350DB50CB40CB60B2D2D34080F3976
:100A68000A128A1544220A128A11831203134208B1
:100A7800943E0F390A128A1544220A128A116B2DE4
:100A8800033040064104031D4A2D4B2D6B2D4208AF
:100A9800D43EB40043080318013E003EB5000430BC
:100AA800B600350DB50CB40CB60B552D34080F39FE
:100AB8000A128A1544220A128A1183120313420861
:100AC800D43E0F390A128A1544220A128A110030BC
:100AD8000A128A152D230A128A11B32983120313C5
:100AE8004308803AFF0080307F02031D7D2D1030BF
:100AF8004202031C802D812D862D83120313C2010F
:100B0800C301902D83120313C31F8B2D8C2D902DA1
:100B18000F30C2000030C30002303D020D3003190F
:100B28003C020318982D992D462E01303D02F430D1
:100B380003193C02031CA12DA22D462E4008410496
:100B4800031DA72DA82DC92D4208803EB4004308D7
:100B58000318013E003EB5000430B600350DB50C53
:100B6800B40CB60BB22D34080F390A128A15442278
:100B78000A128A11831203134208803E0F390A129F
:100B88008A1544220A128A113F2E40034104031D8C
:100B9800CE2DCF2DF02D4208C03EB40043080318D7
:100BA800013E003EB5000430B600350DB50CB40C5E
:100BB800B60BD92D34080F390A128A1544220A12A5
:100BC8008A11831203134208C03E0F390A128A158C
:100BD80044220A128A113F2E023040064104031DA6
:100BE800F62DF72D182E4208943EB400430803183A
:100BF800013E003EB5000430B600350DB50CB40C0E
:100C0800B60B012E34080F390A128A1544220A122B
:100C18008A11831203134208943E0F390A128A1567
:100C280044220A128A113F2E033040064104031D54
:100C38001E2E1F2E3F2E4208D43EB4004308031830
:100C4800013E003EB5000430B600350DB50CB40CBD
:100C5800B60B292E34080F390A128A1544220A12B3
:100C68008A11831203134208D43E0F390A128A15D7
:100C780044220A128A1100300A128A152D230A12F8
:100C88008A11152F02303D020D3003193C02031C56
:100C98004E2E4F2E0D2F04303D02003003193C021A
:100CA8000318572E582E0D2FC001C10140084104CA
:100CB800031D5F2E602E812E4208803EB40043083B
:100CC8000318013E003EB5000430B600350DB50CE2
:100CD800B40CB60B6A2E34080F390A128A1544224E
:100CE8000A128A11831203134208803E0F390A122E
:100CF8008A1544220A128A11F72E40034104031D63
:100D0800862E872EA82E4208C03EB400430803183A
:100D1800013E003EB5000430B600350DB50CB40CEC
:100D2800B60B912E34080F390A128A1544220A127A
:100D38008A11831203134208C03E0F390A128A151A
:100D480044220A128A11F72E023040064104031D7C
:100D5800AE2EAF2ED02E4208943EB400430803189E
:100D6800013E003EB5000430B600350DB50CB40C9C
:100D7800B60BB92E34080F390A128A1544220A1202
:100D88008A11831203134208943E0F390A128A15F6
:100D980044220A128A11F72E033040064104031D2B
:100DA800D62ED72EF72E4208D43EB4004308031897
:100DB800013E003EB5000430B600350DB50CB40C4C
:100DC800B60BE12E34080F390A128A1544220A128A
:100DD8008A11831203134208D43E0F390A128A1566
:100DE80044220A128A1100300A128A152D230A1287
:100DF8008A11023083120313B6000430B500B930EB
:100E0800B400B40B052FB50B052FB60B052F0C2F0F
:100E1800152F01303D02F43003193C020318152F39
:100E2800182F0A128A153A2E0130C0000030C1006E
:100E380040084104031D212F222F432F4208803EE2
:100E4800B40043080318013E003EB5000430B60064
:100E5800350DB50CB40CB60B2C2F34080F390A120B
:100E68008A1544220A128A11831203134208803E0B
:100E78000F390A128A1544220A128A11B92F40031F
:100E88004104031D482F492F6A2F4208C03EB40071
:100E980043080318013E003EB5000430B600350D86
:100EA800B50CB40CB60B532F34080F390A128A1537
:100EB80044220A128A11831203134208C03E0F39D2
:100EC8000A128A1544220A128A11B92F02304006E2
:100ED8004104031D702F712F922F4208943EB400D5
:100EE80043080318013E003EB5000430B600350D36
:100EF800B50CB40CB60B7B2F34080F390A128A15BF
:100F080044220A128A11831203134208943E0F39AD
:100F18000A128A1544220A128A11B92F0330400690
:100F28004104031D982F992FB92F4208D43EB400CD
:100F380043080318013E003EB5000430B600350DE5
:100F4800B50CB40CB60BA32F34080F390A128A1546
:100F580044220A128A11831203134208D43E0F391D
:100F68000A128A1544220A128A1100300A128A15B6
:100F78002D230A128A11FD2E0A128A1112288312B1
:100F88000313A800023083120313A600A60BCA2F6E
:100F980000008330831203139F052808A600013040
:100FA8000310A60DFF3E031DD42F0310260D9F042A
:100FB800063083120313A7002F30A600A60BE22FDA
:100FC800A70BE22FE72F831203139F149F18ED2F0F
:100FD800EE2FEA2F1E08A500831603131E0883129E
:100FE8000313A4000800073400341A342C343E34A8
:1010000008308A000408840A820700340E341F3432
:101010001B341F341F341F341534003442344F3412
:061020004F344D34003492
:10122E0003308316031788008901013083120313DC
:10123E009F008030831603139F0008008B1C282903
:10124E00292931298B130A128A1562210A128A154D
:10125E008B178B10831203132308FF0022088A00BA
:10126E0021088400200E8300FE0E7E0E0900F70179
:10127E00F80154297708760784000A128A1500208F
:10128E000A128A150A128A159B220A128A15013031
:10129E00F7070318F80A0030F80777087607840076
:1012AE000A128A1500200A128A15003A031D6029B7
:1012BE00612941290800FB01FC0100300A128A1540
:1012CE00EF210A128A1501300A128A15EF210A122D
:1012DE008A1508300A128A15EF210A128A1506306D
:1012EE000A128A15EF210A128A150930F6000A121F
:1012FE008A153E210A128A150330FA009730F9003A
:10130E00F90B8729FA0B87298C290130FB07031863
:10131E00FC0A0030FC077C08803AFF0080307F0218
:10132E00031D9B2964307B02031C9E299F2964297F
:10133E000800073083120313AC052C08AE000330EF
:10134E000310AE0DFF3E031DA729F0302E05AF0092
:10135E0040302F04B0000030B1000430B200310D27
:10136E00B10CB00CB20BB62930080A128A15442201
:10137E000A128A15831203132C08AE0002300310D2
:10138E00AE0DFF3E031DC62903102E0D0F3940383A
:10139E000A128A1544220A128A1583120313B30104
:1013AE0033082D0784000A128A1500200A128A15A6
:1013BE000A128A152D230A128A150130831203137D
:1013CE00B30708303302031CED29EE29D729080094
:1013DE00F50083120313440884008317451C8313FE
:1013EE000130F30046080739013EFF290310F30DC3
:1013FE00FF3E031DFD297308FF3A800575080A128A
:10140E008A1534250A128A158312031344088400A0
:10141E008317451C83130130F300460CF400F40CC3
:10142E00740C0739013E1D2A0310F30DFF3E031DF8
:10143E001B2A730880040630F4003030F300F30BDF
:10144E00262AF40B262A0000831203134408840074
:10145E008317451C83130130F300460CF400F40C83
:10146E00740C0739013E3D2A0310F30DFF3E031D98
:10147E003B2A7308FF3A8005080083120313A90064
:10148E00440884008317451C83130130A7004608C7
:10149E000739013E542A0310A70DFF3E031D522AA1
:1014AE002708FF3A800529080A128A157C240A1299
:1014BE008A1583120313440884008317451C831373
:1014CE000130A700460CA800A80C280C0739013ED5
:1014DE00722A0310A70DFF3E031D702A27088004F1
:1014EE00063083120313A8002F30A700A70B7D2A06
:1014FE00A80B7D2A822A83120313440884008317C3
:10150E00451C83130130A700460CA800A80C280C1C
:10151E000739013E942A0310A70DFF3E031D922AA0
:10152E002708FF3A80050800F500831203134408CC
:10153E0084008317451C83130130F30046080739D6
:10154E00013EAB2A0310F30DFF3E031DA92A7308BB
:10155E0080047508F30004300310F30CFF3E031DE6
:10156E00B32A73080F390A128A1534250A128A15FE
:10157E0083120313440884008317451C8313013020
:10158E00F300460CF400F40C740C0739013ED12A1A
:10159E000310F30DFF3E031DCF2A730880040D3098
:1015AE00F300F30BD82A8312031344088400831725
:1015BE00451C83130130F300460CF400F40C740C3C
:1015CE000739013EEC2A0310F30DFF3E031DEA2AF4
:1015DE007308FF3A800575080F390A128A153425EB
:1015EE000A128A1583120313440884008317451CBC
:1015FE0083130130F300460CF400F40C740C07391D
:10160E00013E0B2B0310F30DFF3E031D092B730838
:10161E0080040D30F300F30B122B831203134408D6
:10162E0084008317451C83130130F300460CF4002D
:10163E00F40C740C0739013E262B0310F30DFF3EFC
:10164E00031D242B7308FF3A800508008312031331
:10165E00A900440884008317451C83130130A7009A
:10166E0046080739013E3D2B0310A70DFF3E031D13
:10167E003B2B270880042908A70004300310A70C71
:10168E00FF3E031D452B27080F390A128A157C24AD
:10169E000A128A1583120313440884008317451C0B
:1016AE0083130130A700460CA800A80C280C07399C
:1016BE00013E632B0310A70DFF3E031D612B270870
:1016CE0080040C3083120313A700A70B6C2B0000B1
:1016DE0083120313440884008317451C83130130BF
:1016EE00A700460CA800A80C280C0739013E812B38
:1016FE000310A70DFF3E031D7F2B2708FF3A800521
:10170E0029080F390A128A157C240A128A158312A7
:10171E000313440884008317451C83130130A7006C
:10172E00460CA800A80C280C0739013EA02B03106C
:10173E00A70DFF3E031D9E2B270880040C3083123D
:10174E000313A700A70BA92B000083120313440851
:10175E0084008317451C83130130A700460CA80094
:10176E00A80C280C0739013EBE2B0310A70DFF3E17
:10177E00031DBC2B2708FF3A800508004430840067
:10178E00831203132A0883138000840A2B08800017
:10179E00840A2C088000840A2D088000840A2E08F2
:1017AE00800000304506031DDE2B05304406031D68
:1017BE00E12BE22BE62B831603138501012C00305F
:1017CE004506031DEC2B06304406031DEF2BF02BB4
:1017DE00F42B831603138601012C00304506031DDE
:1017EE00FA2B07304406031DFD2BFE2B7B2C831694
:1017FE00031387011A3083120313B000F730AF00C2
:10180E00AF0B072CB00B072C0C2C03300A128A15C9
:10181E0044220A128A15073083120313B0007C305B
:10182E00AF00AF0B182CB00B182C000003300A12AF
:10183E008A1544220A128A15153083120313B0003A
:10184E00C530AF00AF0B292CB00B292C2E2C03303A
:10185E000A128A1544220A128A1502300A128A15B1
:10186E0044220A128A1502300A128A1544220A12DA
:10187E008A1508300A128A1544220A128A15003077
:10188E000A128A1544220A128A1506300A128A157D
:10189E0044220A128A15083083120313B10031153F
:1018AE003108AF0004300310AF0CFF3E031D5A2C5D
:1018BE002F080F390A128A1544220A128A1583122A
:1018CE00031331080F390A128A1544220A128A1597
:1018DE0000300A128A1544220A128A1501300A12A1
:1018EE008A1544220A128A15080083120313A600D1
:1018FE00261C822C832C962C440884008317451CAE
:10190E0083130130A40047080739013E902C0310C1
:10191E00A40DFF3E031D8E2C24088004A92C440820
:10192E0084008317451C83130130A4004708073930
:10193E00013EA32C0310A40DFF3E031DA12C240871
:10194E00FF3A8005A61CAC2CAD2CC32C4408840099
:10195E008317451C83130130A400470CA500A50C6A
:10196E00250C0739013EBD2C0310A40DFF3E031DAF
:10197E00BB2C24088004D92C440884008317451CF2
:10198E0083130130A400470CA500A50C250C0739C4
:10199E00013ED32C0310A40DFF3E031DD12C2408B1
:1019AE00FF3A8005261DDC2CDD2CF02C440884002B
:1019BE008317451C83130130A40048080739013EE4
:1019CE00EA2C0310A40DFF3E031DE82C240880040E
:1019DE00032D440884008317451C83130130A40093
:1019EE0048080739013EFD2C0310A40DFF3E031DD0
:1019FE00FB2C2408FF3A8005A61D062D072D1D2D54
:101A0E00440884008317451C83130130A400480C3E
:101A1E00A500A50C250C0739013E172D0310A40DAA
:101A2E00FF3E031D152D24088004332D4408840029
:101A3E008317451C83130130A400480CA500A50C88
:101A4E00250C0739013E2D2D0310A40DFF3E031D5D
:101A5E002B2D2408FF3A80050800F200721C382D49
:101A6E00392D4E2D83120313440884008317451C11
:101A7E0083130130F00047080739013E482D03104B
:101A8E00F00DFF3E031D462D70088004632D83125A
:101A9E000313440884008317451C83130130F000A0
:101AAE0047080739013E5D2D0310F00DFF3E031D63
:101ABE005B2D7008FF3A8005F21C662D672D7D2D7B
:101ACE00440884008317451C83130130F000470C33
:101ADE00F100F10C710C0739013E772D0310F00D5A
:101AEE00FF3E031D752D70088004932D440884005D
:101AFE008317451C83130130F000470CF100F10CE5
:101B0E00710C0739013E8D2D0310F00DFF3E031DA4
:101B1E008B2D7008FF3A8005721D962D972DAA2DDC
:101B2E00440884008317451C83130130F0004808D5
:101B3E000739013EA42D0310F00DFF3E031DA22D0B
:101B4E0070088004BD2D440884008317451C831340
:101B5E000130F00048080739013EB72D0310F00D93
:101B6E00FF3E031DB52D7008FF3A8005F21DC02DF6
:101B7E00C12DD72D440884008317451C83130130D3
:101B8E00F000480CF100F10C710C0739013ED12D1B
:101B9E000310F00DFF3E031DCF2D70088004ED2DB8
:101BAE00440884008317451C83130130F000480C51
:101BBE00F100F10C710C0739013EE72D0310F00D09
:101BCE00FF3E031DE52D7008FF3A800508003730F3
:101BDE00840083120313490883138000840A4A0881
:101BEE008000840A4B088000840A4C088000840A16
:101BFE004D0880002A30840037088000840A380897
:101C0E008000840A39088000840A3A088000840A19
:101C1E003B0880000A128A15C5230A128A150A1279
:101C2E008A1517210A128A15FF30831603138600B0
:101C3E0087018B170B16011301087F39810037308E
:101C4E0083120313AA000030AB00AC010130AD00CB
:101C5E000A128A15A0210A128A1583120313C201D1
:101C6E00C301C001C10100300A128A11C3270A1232
:101C7E008A15831203132508BF002408BE00013005
:101C8E000A128A11C3270A128A1583120313250812
:101C9E00BD002408BC0000300A128A1544220A1224
:101CAE008A1501300A128A1544220A128A15023048
:101CBE00831203133F020D3003193E020318682EE0
:101CCE006B2E0A128A151E2F01303F02F4300319B3
:101CDE003E02031C732E742E682E40084104031D11
:101CEE00792E7A2E9B2E4208803EB40043080318AC
:101CFE00013E003EB5000430B600350DB50CB40CF7
:101D0E00B60B842E34080F390A128A1544220A1291
:101D1E008A15831203134208803E0F390A128A1560
:101D2E0044220A128A15F22E40034104031DA02EEE
:101D3E00A12EC22E4208C03EB40043080318013E35
:101D4E00003EB5000430B600350DB50CB40CB60B24
:101D5E00AB2E34080F390A128A1544220A128A153C
:101D6E00831203134208C03E0F390A128A15442209
:101D7E000A128A15F22E023040064104031DC82EA7
:101D8E00C92EEA2E4208943EB40043080318013EC1
:101D9E00003EB5000430B600350DB50CB40CB60BD4
:101DAE00D32E34080F390A128A1544220A128A15C4
:101DBE00831203134208943E0F390A128A154422E5
:101DCE000A128A15F22E033040064104031DF22E2C
:101DDE000A128A15F52E0A128A15152F4208D43EBC
:101DEE00B40043080318013E003EB5000430B600AF
:101DFE00350DB50CB40CB60BFF2E34080F390A1284
:101E0E008A1544220A128A15831203134208D43EFD
:101E1E000F390A128A1544220A128A1500300A1244
:101E2E008A152D230A128A150A128A11722D023072
:101E3E003F020D3003193E02031C262F272FEA2FD7
:101E4E0002303F028B3003193E0203182F2F302F22
:101E5E00EA2F4208013EC20043080318013E003E2D
:101E6E00C30040084104031D3D2F3E2F5F2F420843
:101E7E00803EB40043080318013E003EB500043016
:101E8E00B600350DB50CB40CB60B482F34080F390F
:101E9E000A128A1544220A128A1583120313420863
:101EAE00803E0F390A128A1544220A128A15D52F3E
:101EBE0040034104031D642F652F862F4208C03E48
:101ECE00B40043080318013E003EB5000430B600CE
:101EDE00350DB50CB40CB60B6F2F34080F390A1232
:101EEE008A1544220A128A15831203134208C03E31
:101EFE000F390A128A1544220A128A15D52F02307A
:101F0E0040064104031D8C2F8D2FAE2F4208943EA8
:101F1E00B40043080318013E003EB5000430B6007D
:101F2E00350DB50CB40CB60B972F34080F390A12B9
:101F3E008A1544220A128A15831203134208943E0C
:101F4E000F390A128A1544220A128A15D52F033028
:101F5E0040064104031DB42FB52FD52F4208D43EA1
:101F6E00B40043080318013E003EB5000430B6002D
:101F7E00350DB50CB40CB60BBF2F34080F390A1241
:101F8E008A1544220A128A15831203134208D43E7C
:101F9E000F390A128A1544220A128A1500300A12C3
:101FAE008A152D230A128A15063083120313B600E2
:101FBE001330B500AD30B400B40BE32FB50BE32FE7
:101FCE00B60BE32F1B2F02303F028B3003193E025C
:101FDE00031CF22FF52F0A128A11F62803303F0246
:101FEE00083003193E020318FF2F0A128A113C28EB
:021FFE00F22FC0
:04400E00F22FFF3F4F
:00000001FF
