:060000000A128A110C280F
:10000800FE00030EF8000A08F9000A128A15B72E36
:100018000A128A110F28831603130A128A153F251C
:100028000A128A11E8000A128A1540250A128A1152
:10003800E9000A128A1541250A128A11EA000A12F1
:100048008A1542250A128A11EB000A128A154325DD
:100058000A128A11EC008313C6308400E8300A12B1
:100068008A11F8270A128A1183120313EA01EB0195
:10007800EC01ED01EE01F001F101F201F301F401EF
:1000880083010A128A1148280A128A1544250A127D
:100098008A11831603130614061501087F39810097
:1000A80005309500053096008B170B178B150B1034
:1000B800B7308400680883138000840A69088000C8
:1000C800840A6A088000840A6B088000840A6C0825
:1000D80080002630840037088000840A38088000B1
:1000E800840A39088000840A3A088000840A3B0898
:1000F80080000A128A11B0230A128A118316031388
:1001080046080A128A15BF250A128A118312031398
:10011800210883160313C5008312031320088316CE
:100128000313C40000300A128A1552270A128A11D2
:1001380001300A128A1552270A128A1183160313EC
:100148004608031DA828A928C12808300A128A15BC
:1001580052270A128A1100300A128A1552270A12E7
:100168008A11363083120313A6008030A7000A12C2
:100178008A1571260A128A11D82808300A128A1597
:1001880052270A128A1100300A128A1552270A12B7
:100198008A11473083120313A6008030A7000A1281
:1001A8008A1571260A128A11831603134708031D3C
:1001B800DE28DF288929003083120313B0000030BD
:1001C800AF000330AE00FF30AD00831603134408C0
:1001D80083120313A0008316031345088312031325
:1001E800A100A201A3010030A7000030A600C3307F
:1001F800A5005030A4000A128A11B5260A128A11E5
:10020800831203132308B4002208B3002108B200A4
:100218002008B1000A128A1106250A128A118312CF
:1002280003132E0883160313C300831203132D0828
:1002380083160313C200103083120313A000273063
:10024800A10083160313430883120313A300831624
:100258000313420883120313A2000A128A152D26DB
:100268000A128A1183120313210883160313BD008F
:1002780083120313200883160313BC001030831263
:100288000313A0002730A100831603134308831229
:100298000313A30083160313420883120313A20057
:1002A8000A128A15F3250A128A11831203132108E8
:1002B80083160313BF008312031320088316031346
:1002C800BE00A33083120313D7000130D800831671
:1002D80003133D0883120313DA00831603133C0843
:1002E80083120313D900831603133F0883120313E1
:1002F800DC00831603133E0883120313DB000A1283
:100308008A1575250A128A11FD294703031D8D29AF
:100318008E29E629003083120313B0000030AF00A5
:100328000330AE00FF30AD00831603134408831278
:100338000313A00083160313450883120313A100B7
:10034800A201A3010030A7000030A6000030A500DC
:100358006430A4000A128A11B5260A128A1183127F
:1003680003132308B4002208B3002108B2002008B0
:10037800B1000A128A1167270A128A11831203131D
:100388002E0883160313C100831203132D08831646
:100398000313C000A33083120313D7001430D8000E
:1003A80083160313410883120313DA008316031319
:1003B800400883120313D9000A128A1575250A12F8
:1003C8008A11FD29A33083120313D7002530D800E2
:1003D80083160313450883120313DA0083160313E5
:1003E800440883120313D9000A128A1575250A12C4
:1003F8008A110C300A128A1552270A128A11003003
:100408000A128A1552270A128A11A330831203137B
:10041800A6000030A7000A128A1571260A128A114E
:10042800043083160313A2000C30A1003330A0005F
:10043800A00B1C2AA10B1C2AA20B1C2A82280A1218
:100448008A110C28831203134808840083130008B8
:1004580084000A128A110A270A128A11253A031DF2
:10046800362A372ADE2A4808840001308007EA0144
:10047800EB010030EE00FF30EC00FF30ED00D00162
:100488005B2AEE1448088400013080075B2A01309B
:10049800D0005B2A48088400000884000A128A11E8
:1004A8000A270A128A11303A0319452A4B2A50089A
:1004B80003195F2A602A4E2A4808A6004908A7009F
:1004C8000A128A15A9270A128A1183120313270808
:1004D800EB002608EA00EB1F722A732A792A6E14A9
:1004E800EA09EB09EA0A0319EB0A480884008313AE
:1004F8000008D100510884000A128A110A270A123A
:100508008A11753A031D892A8A2AB62A490884005D
:100518000008FF00023080077F0884000008CC0034
:10052800840A0008CD00480884005108013E800074
:10053800AB2A4608BD004708BE004D08C0004C085D
:10054800BF000A128A1137260A128A11F72A51089F
:1005580084000A128A110A270A128A11753A0319A5
:100568009D2AB62A48088400000884000A128A11C5
:100578000A270A128A11253A031DC32AC42AD62A31
:1005880048088400013080072530A0000030A10011
:100598004608A2004708A3000A128A1166240A1214
:1005A8008A11F72A83120313480884000130831341
:1005B8008007F72A48088400000884000A128A1174
:1005C8000A270A128A11CA00CB014A08A0004B0860
:1005D800A1004608A2004708A3000A128A1166244F
:1005E8000A128A11D62A080083120313A200221CB9
:1005F800FE2AFF2A122B700884008317711C8313AC
:100608000130A00073080739013E0C2B0310A00D20
:10061800FF3E031D0A2B20088004252B7008840048
:100628008317711C83130130A00073080739013E3A
:100638001F2B0310A00DFF3E031D1D2B2008FF3AA2
:100648008005A21C282B292B3F2B700884008317B8
:10065800711C83130130A000730CA100A10C210CA4
:100668000739013E392B0310A00DFF3E031D372B20
:1006780020088004552B700884008317711C83138D
:100688000130A000730CA100A10C210C0739013E18
:100698004F2B0310A00DFF3E031D4D2B2008FF3AE2
:1006A8008005221D582B592B6C2B7008840083174A
:1006B800711C83130130A00074080739013E662BB2
:1006C8000310A00DFF3E031D642B200880047F2B20
:1006D800700884008317711C83130130A00074080C
:1006E8000739013E792B0310A00DFF3E031D772B20
:1006F8002008FF3A8005A21D822B832B992B7008B6
:1007080084008317711C83130130A000740CA100AE
:10071800A10C210C0739013E932B0310A00DFF3EBD
:10072800031D912B20088004AF2B700884008317C9
:10073800711C83130130A000740CA100A10C210CC2
:100748000739013EA92B0310A00DFF3E031DA72B5F
:100758002008FF3A800508007030840083120313D4
:1007680026088000840A27088000840A2808800058
:10077800840A29088000840A2A088000003071064B
:10078800031DC82B05307006031DCB2BCC2BD02B9B
:10079800831603138501EB2B00307106031DD62B3E
:1007A80006307006031DD92BDA2BDE2B83160313B4
:1007B8008601EB2B00307106031DE42B0730700611
:1007C800031DE72BE82B652C8316031387011A30CA
:1007D80083120313AC00F730AB00AB0BF12BAC0B5F
:1007E800F12BF62B03300A128A1552270A128A11A6
:1007F800073083120313AC007C30AB00AB0B022C28
:10080800AC0B022C000003300A128A1552270A1278
:100818008A11153083120313AC00C530AB00AB0B43
:10082800132CAC0B132C182C03300A128A155227E0
:100838000A128A1102300A128A1552270A128A11DC
:1008480002300A128A1552270A128A1108300A122F
:100858008A1552270A128A1100300A128A1552275D
:100868000A128A1106300A128A1552270A128A11A8
:10087800083083120313AD002D152D08AB0004308A
:100888000310AB0CFF3E031D442C2B080F390A1232
:100898008A1552270A128A11831203132D080F3959
:1008A8000A128A1552270A128A1100300A128A156A
:1008B80052270A128A1101300A128A1552270A127F
:1008C8008A110800831203132208230403196D2CCC
:1008D8006E2C742C22082304031D732C742C7B2C7F
:1008E80020080A128A11FD260A128A11052D2208EB
:1008F800093EA40023080318013E003EA500240871
:1009080084008317251C83130008A600840A0008A6
:10091800A700260827040319922C932CC52C22081B
:10092800093EA40023080318013E003EA500240840
:1009380084008317251C83130008A600840A000876
:10094800A7002208023EA80023080318013E003E23
:10095800A900280884008317291C83130008AA000B
:10096800840A0008AB002B08803AAC002708803ABC
:100978002C02031DC12C26082A020318C42CC52CDE
:10098800052D83120313220884008317231C831365
:100998000008A400840A0008A5002208023EA60058
:1009A80023080318013E003EA70026088400831789
:1009B800271C831300082407A9002508A80003188A
:1009C800A80A801FE82CA803831203132808AA008A
:1009D8002908840083172A1C831320088000220812
:1009E800023EA40023080318013E003EA500240887
:1009F80084008317251C831301308007840A031899
:100A0800800A080083120313B701B01F0C2D0D2DA7
:100A18001A2DAD09AE09AF09B009AD0A0319AE0A1E
:100A28000319AF0A0319B00A0130B700B41F1D2D0E
:100A38001E2D2B2DB109B209B309B409B10A031946
:100A4800B20A0319B30A0319B40A0130B706003011
:100A5800BB000030BA000030B9000030B8003008E0
:100A68002F042E042D0403193A2D3B2D862D013019
:100A7800B600492D0130B5000310AD0DAE0DAF0D18
:100A8800B00DB50B402D0130B607B01F4C2D4D2DC4
:100A98003E2D0130B5000310B80DB90DBA0DBB0DD0
:100AA800B50B4F2D30083402031D642D2F08330277
:100AB800031D642D2E083202031D642D2D083102FA
:100AC800031C672D682D772D2D08B1022E08031CF5
:100AD8002E0FB2022F08031C2F0FB3023008031C7D
:100AE800300FB402381401300310B00CAF0CAE0C48
:100AF800AD0CFF3E031D782D0130B602031D852D78
:100B0800862D4D2D370803198A2D8B2D962DB80962
:100B1800B909BA09BB09B80A0319B90A0319BA0A03
:100B28000319BB0A3B08B0003A08AF003908AE0009
:100B38003808AD00080083120313A500700884006C
:100B48008317711C83130130A30072080739013E13
:100B5800AF2D0310A30DFF3E031DAD2D2308800408
:100B68002508A30004300310A30CFF3E031DB72D76
:100B780023080F390A128A11F8220A128A117008FA
:100B880084008317711C8313013083120313A3009D
:100B9800720CA400A40C240C0739013ED52D0310B7
:100BA800A30DFF3E031DD32D230880040C308312B0
:100BB8000313A300A30BDE2D000070088400831725
:100BC800711C8313013083120313A300720CA40059
:100BD800A40C240C0739013EF32D0310A30DFF3E8E
:100BE800031DF12D2308FF3A800525080F390A1245
:100BF8008A11F8220A128A11700884008317711C5E
:100C08008313013083120313A300720CA400A40CF5
:100C1800240C0739013E122E0310A30DFF3E031DBD
:100C2800102E230880040C3083120313A300A30B97
:100C38001B2E0000700884008317711C8313013079
:100C480083120313A300720CA400A40C240C07390C
:100C5800013E302E0310A30DFF3E031D2E2E230848
:100C6800FF3A80050800013083120313C1006B08A6
:100C7800C3006A08C2001F30C4000030C5008316D4
:100C88000313E7017D2EFF30C4070318C50AFF30A0
:100C9800C5074408C83E84000A30A0000030A100FF
:100CA8004008A3003F08A2000A128A15F3250A1279
:100CB8008A11831203132008303E83138000C10178
:100CC800FF30C2070318C30AFF30C3070A30A00069
:100CD8000030A1004008A3003F08A2000A128A15AC
:100CE8002D260A128A11831203132108C000200836
:100CF800BF008312440845040319832E842EA22EB4
:100D08003F084004031D892E8A2E472E4108031DE3
:100D18008E2E8F2E472E4308803AFF0080307F02A8
:100D2800031D982E01304202031C9B2E9C2EA22EDE
:100D380083120313EE18A12EA22E472E831203133B
:100D48003D08B5003E08B6004408C83EB700430851
:100D5800B9004208B8000A128A15FF260A128A1139
:100D68000800003083120313AC000030AB000030E1
:100D7800AA000030A900201CC22EC32EDA2E240897
:100D8800A907250803110318013E0319CC2EAA0749
:100D9800260803110318013E0319D32EAB072708B1
:100DA80003110318013E0319DA2EAC070130A8001D
:100DB8000310A40DA50DA60DA70DA80BDC2E013060
:100DC8000310A30CA20CA10CA00CFF3E031DE42EE3
:100DD8002308220421042004031DF32EF42EBF2E21
:100DE8002C08A3002B08A2002A08A1002908A000AB
:040DF80008000800E7
:100E0000FF1B0A2F83137F1883170008840A031916
:100E1000FF0A080007308A000408840A82070034A9
:100E2000253475342E34253430343234753420343E
:100E300056342034203420342034203420342034DC
:100E400020342034003425347534203425342534BE
:100E500020342034203420342034203420342034F2
:100E600020342034203400344134443443343A3480
:100E70002034253475342034203420342034203478
:100E80002034203420342034003456346F346C3411
:100E9000743461346A346534203431343A34203463
:100EA00020342034203420342034003456346F343D
:100EB0006C34743461346A346534203432343A34F6
:100EC00020342034203420342034203400340030C6
:100ED00083120313B9000030B8000030B7000030AF
:100EE000B60030082F042E042D040319782F792F13
:100EF000C42F0130BA00872F0130B5000310AD0DAB
:100F0000AE0DAF0DB00DB50B7E2F0130BA07B01F7F
:100F10008A2F8B2F7C2F0130B5000310B60DB70D33
:100F2000B80DB90DB50B8D2F30083402031DA22F5B
:100F30002F083302031DA22F2E083202031DA22FF9
:100F40002D083102031CA52FA62FB52F2D08B102A5
:100F50002E08031C2E0FB2022F08031C2F0FB30202
:100F60003008031C300FB402361401300310B00CEB
:100F7000AF0CAE0CAD0CFF3E031DB62F0130BA0214
:100F8000031DC32FC42F8B2F3908B0003808AF00C2
:100F90003708AE003608AD00080083120313B30112
:100FA000B401EA2F3208B000B1013008A0003108C6
:100FB000A1002E08A2002F08A3000A128A1166249D
:100FC0000A128A11013083120313B3070318B40AFB
:100FD0000030B40733082D07B000300884008313B5
:100FE0000008B2003208031DF62FF72FD22F080099
:100FF00064008001840A0406031900340406F92FF2
:101A7E00073400341A342C343E34033083160317E3
:101A8E00880089010130831203139F008030831672
:101A9E0003139F000800831203135408D600642D0D
:101AAE005208C6005308C7005630C8005508C90072
:101ABE000A128A1126220A128A1583120313560855
:101ACE0084000A128A110A270A128A15003A031D87
:101ADE00712D722D572DD201D3010800593083126A
:101AEE000313DE005708DF000030E000E101E201E1
:101AFE00E801E9015F30D2000030D3005808D4006D
:101B0E005E30D5000A128A1552250A128A158312E2
:101B1E00031361085707DD005D08840083138001FD
:101B2E00080083120313A401A501201C9F2DA02DD4
:101B3E00A62D2208A4070318A50A2308A50701301D
:101B4E000310A20DA30DFF3E031DA72D01300310A0
:101B5E00A10CA00CFF3E031DAE2D20082104031D79
:101B6E00B92DBA2D9C2D2508A1002408A00008002F
:101B7E0083120313A400023083120313A200A20BDC
:101B8E00C62D00008330831203139F052408A20084
:101B9E0001300310A20DFF3E031DD02D0310220DA8
:101BAE009F04063083120313A3002F30A200A20B52
:101BBE00DE2DA30BDE2DE32D831203139F149F182E
:101BCE00E92DEA2DE62D1E08A100831603131E082B
:101BDE0083120313A00008008312031320082104AC
:101BEE000319FA2DFB2D282E0130A400072E0130EB
:101BFE000310A00DA10DFF3E031DFF2D0130A40704
:101C0E00A11F0A2E0B2EFE2D21082302031D112EBD
:101C1E0020082202031C142E152E1B2E2008A202B1
:101C2E002108031CA303A30201300310A10CA00C76
:101C3E00FF3E031D1C2E0130A402031D272E282E4D
:101C4E000B2E2308A1002208A00008008312031304
:101C5E00A501A601200821040319362E372E6C2E5D
:101C6E000130A400432E01300310A00DA10DFF3E44
:101C7E00031D3B2E0130A407A11F462E472E3A2EE0
:101C8E0001300310A50DA60DFF3E031D482E2108A1
:101C9E002302031D542E20082202031C572E582EF9
:101CAE005F2E2008A2022108031CA303A302251401
:101CBE0001300310A10CA00CFF3E031D602E01305D
:101CCE00A402031D6B2E6C2E472E2608A10025089C
:101CDE00A000080083120313AB01AC019A2E2B084F
:101CEE002607A9002708A8000318A80AAB1F802EF4
:101CFE00A803831203132808AA002A08FF00290844
:101D0E0084000A128A1100270A128A150A128A11F1
:101D1E009F250A128A15013083120313AB0703188D
:101D2E00AC0A0030AC072B082607A9002708A8002C
:101D3E000318A80AAB1FA42EA803831203132808A6
:101D4E00AA002A08FF00290884000A128A11002717
:101D5E000A128A15003A031DB52EB62E762E0800ED
:101D6E000B1CBA2EBB2EF82E831203130618C02E90
:101D7E00C12ED82E013083160313C7070330470236
:101D8E00031CCA2ECB2ECC2EC7010330F700083011
:101D9E00F6007730F500F50BD22EF60BD22EF70BA0
:101DAE00D22E831203130619DD2EDE2EF42E831689
:101DBE00031346080319E42EE62E0130E72E0030F9
:101DCE00C6000330F7000830F6007730F500F50B4B
:101DDE00EE2EF60BEE2EF70BEE2E831203130608E5
:101DEE000B1079088A00780E8300FE0E7E0E090015
:101DFE00831203136E1C042F052F102F3708AD000E
:101E0E003508AE003608AF000A128A11CD270A1225
:101E1E008A1583120313B91F152F162F182FB80109
:101E2E00B901BB01BC01322F203083120313A00075
:101E3E000030A1003508A2003608A3000A128A114C
:101E4E0066240A128A15013083120313BB07031886
:101E5E00BC0A0030BC073C08803ABA003908803A08
:101E6E003A02031D3C2F38083B02031C3F2F402F24
:101E7E001B2F831203136E18452F462F512F370831
:101E8E00AD003508AE003608AF000A128A11CD2714
:101E9E000A128A15080083120313A5007008840025
:101EAE008317711C83130130A30072080739013E9A
:101EBE00622F0310A30DFF3E031D602F2308FF3A70
:101ECE00800525080A128A11F8220A128A1570084E
:101EDE0084008317711C8313013083120313A30034
:101EEE00720CA400A40C240C0739013E802F0310A1
:101EFE00A30DFF3E031D7E2F2308800406308312A0
:101F0E000313A4002F30A300A30B8B2FA40B8B2F36
:101F1E00902F700884008317711C83130130831275
:101F2E000313A300720CA400A40C240C0739013E69
:101F3E00A22F0310A30DFF3E031DA02F2308FF3A6F
:101F4E008005080083120313A901AA012608840044
:101F5E008313000884000A128A110A270A128A15AE
:101F6E002A3A031DBB2FBC2FEA2F2608840001300E
:101F7E008007270884000008FF00023080077F08D2
:101F8E0084000008A900840A0008AA00FB2F2A0872
:101F9E00A1002908A0000A30A2000030A3000A12F6
:101FAE008A1598250A128A1583120313280820070A
:101FBE00A9000030031801302107AA00260884006A
:101FCE0001308313800726088400000884000A125B
:101FDE008A110A270A128A15D03EA8000A30280252
:101FEE00031CFA2FFB2FCE2F2A08A7002908A600C4
:021FFE000800D9
:04400E00F12FFF3F50
:00000001FF
