:060000000A128A11EE2F26
:100C56003F3406345B344F3466346D347D340734A8
:100C66007F3467347E088A007F0882000A128A1160
:100C760035260A128A118000840A04087D060319A3
:100C86000034FF0A0319FE0A392EFD01FB1F4C2E04
:100C96004D2E542EFA09FB09FA0A0319FB0A0130F4
:100CA600FD00F91F572E582E5D2EF809F909F80A8E
:100CB6000319F90A780879040319622E632E902E17
:100CC6000130FC006F2E01300310F80DF90DFF3EC8
:100CD600031D672E0130FC07F91F722E732E662E38
:100CE60079087B02031D792E78087A02031C7C2E74
:100CF6007D2E832E7808FA027908031CFB03FB027B
:100D060001300310F90CF80CFF3E031D842E013050
:100D1600FC02031D8F2E902E732E7D080319942E30
:100D2600952E9A2EFA09FB09FA0A0319FB0A7B0883
:100D3600F9007A08F8000800F501F11FA32EA42E89
:100D4600AB2EF009F109F00A0319F10A0130F5009A
:100D5600F31FAE2EAF2EB62EF209F309F20A0319CF
:100D6600F30A0130F506F601F7017008710403195C
:100D7600BD2EBE2EF32E0130F400CA2E0130031014
:100D8600F00DF10DFF3E031DC22E0130F407F11FD9
:100D9600CD2ECE2EC12E01300310F60DF70DFF3EDF
:100DA600031DCF2E71087302031DDB2E700872021D
:100DB600031CDE2EDF2EE62E7008F2027108031CDD
:100DC600F303F302761401300310F10CF00CFF3E2E
:100DD600031DE72E0130F402031DF22EF32ECE2E54
:100DE60075080319F72EF82EFD2EF609F709F60AEF
:100DF6000319F70A7708F1007608F0000800831651
:100E060003138801870183120313AC01AD01E83097
:100E1600F0000330F1002D08F3002C08F2000A124E
:100E26008A119F260A128A11710883120313A300DE
:100E36007008A2000A30F8000030F9006430F000B3
:100E46000030F1002D08F3002C08F2000A128A1176
:100E56009F260A128A117108FB007008FA000A120E
:100E66008A1148260A128A11790883120313A500EB
:100E76007808A4000A30F8000030F9000A30F000C3
:100E86000030F1002D08F3002C08F2000A128A1136
:100E96009F260A128A117108FB007008FA000A12CE
:100EA6008A1148260A128A11790883120313A700A9
:100EB6007808A6000A30F8000030F9002D08FB007B
:100EC6002C08FA000A128A1148260A128A11790891
:100ED60083120313A9007808A800AA01AB01F73012
:100EE60083120313870022082E3E84008313000812
:100EF6008800033083120313A1009730A000A00BD3
:100F0600822FA10B822FFB30831203138700240844
:100F16002E3E8400831300088800033083120313D7
:100F2600A1009730A000A00B962FA10B962FFD30A5
:100F360083120313870026082E3E840083130008BD
:100F46008800033083120313A1009730A000A00B82
:100F5600AA2FA10BAA2FFE3083120313870028089D
:100F66002E3E840083130008880003308312031387
:100F7600A1009730A000A00BBE2FA10BBE2F013001
:100F860083120313AA070318AB0A0030AB072B081A
:100F9600803AFF0080307F02031DD32FFA302A02E9
:100FA600031CD62FD72F722F013083120313AC07E1
:100FB6000318AD0A0030AD0710302C062730031990
:100FC6002D06031DE72FE82F0A2FAC01AD010A2FCE
:100FD6000A128A11002883133830FD000630FE00FD
:100FE6002B30FF002E3084000A128A1139260A128D
:0A0FF6008A1183010A128A11022FEA
:04400E00F12FFF3F50
:00000001FF
