:060000000A128A11FC2F18
:100F5A00831603130715FF3092000C308312031314
:100F6A0097009501CF3097058C10073092008C1CA2
:100F7A00BF2FC02FBC2F831603130711F301F401EF
:100F8A000130F20072080319CB2FCC2FDD2F01306C
:100F9A00F3070318F40A0030F40700307402FF3034
:100FAA0003197302031CDA2FDB2FEB2FF201EB2F4D
:100FBA000130F3020030031CF403F40273087404D2
:100FCA00031DE82FE92FEB2F0130F200730883127B
:100FDA00031395001A30F100F830F000F00BF32FEC
:100FEA00F10BF32F0000C72F0A128A110028830180
:060FFA000A128A11AD2F5E
:04400E00F12FFF3F50
:00000001FF
