:100000000A128A11D42FF2010F30831203138804CD
:10001000112808101F2888101F2808111F28881170
:100020001F287208003A03190928013A03190B28FE
:10003000033A03190D28013A03190F281F2821300C
:10004000F000F00B21288312031306182828292812
:100050004528061C2C282D2829283430F100F130A1
:10006000F000F00B3128F10B312836287208F0002F
:1000700001300310F00DFF3E031D39280310700DF1
:10008000D63E840083130008AE28861848284928E5
:100090006528861C4C284D2849283430F100F13061
:1000A000F000F00B5128F10B512856287208F0008F
:1000B00001300310F00DFF3E031D59280310700D91
:1000C000D73E840083130008AE28061968286928E3
:1000D0008528061D6C286D2869283430F100F13020
:1000E000F000F00B7128F10B712876287208F000EF
:1000F00001300310F00DFF3E031D79280310700D31
:10010000D83E840083130008AE28861988288928E1
:10011000A528861D8C288D2889283430F100F130DF
:10012000F000F00B9128F10B912896287208F0004E
:1001300001300310F00DFF3E031D99280310700DD0
:10014000D93E840083130008AE280130F207043042
:100150007202031CAC28AD2804280030080083126A
:1001600003133D0884008313000884000A168A11D3
:100170000A200A128A11253A031DBF28C0288D299A
:100180003D0884000130800783160313A401A501F4
:10019000003083120313EE00FF3083160313A60012
:1001A000FF30A70083120313C101EC28EE143D08B1
:1001B000840001308007EC280130C100EC283D08A4
:1001C0008400000884000A168A110A200A128A1183
:1001D000303A0319D628DC2841080319F028F12801
:1001E000DF283D08F6003E08F7000A168A11F524BC
:1001F0000A128A11770883160313A5007608A40053
:10020000A51F032904290E29831203136E148316D4
:100210000313A409A509A40A0319A50A8312031349
:100220003D08840083130008C600460884000A16AF
:100230008A110A200A128A11643A031920292129F5
:100240002D29460884000A168A110A200A128A11EA
:10025000693A031D2C292D294D293E0884000008E8
:10026000FF00023080077F0884000008C200840A73
:100270000008C3003D0884004608013E80003B089A
:10028000AF003C08B0004308B2004208B1000A12B7
:100290008A150E230A128A11A629460884000A1616
:1002A0008A110A200A128A11753A031D5829592900
:1002B00085293E0884000008FF00023080077F087F
:1002C00084000008C200840A0008C3003D088400BE
:1002D0004608013E80007A293B08AF003C08B00088
:1002E0004308B2004208B1000A168A11E7260A1232
:1002F0008A11A629460884000A168A110A200A12C1
:100300008A11753A03196C298529831203133D0854
:100310008400013083138007A6293D08840000086B
:1003200084000A168A110A200A128A11BF00C0012D
:100330003F08F0004008F1003B08F2003C08F300E1
:100340000A128A1558200A128A1185290800831674
:10035000031788018901F0308316031388000F30DA
:10036000860081130F308312031388000F3086003C
:10037000CC30840083160313660883138000840A3C
:1003800067088000840A68088000840A6908800081
:10039000840A6A088000763084004C088000840A51
:1003A0004D088000840A4E088000840A4F088000AF
:1003B000840A500880000A128A15F2200A128A1153
:1003C00000300A168A1148250A128A1101300A16CD
:1003D0008A1148250A128A110A128A1103200A1268
:1003E0008A1183160313D50055080319F829F92932
:1003F000EC292A305506031DFE29FF29052A0A1675
:100400008A1127230A128A11EC2930305502031C65
:100410000A2A0B2A2A2A3A3055020318102A112ACE
:100420002A2A10302A020318162A172AEC292A0829
:10043000AB3E84005508831380000130AA072A08C8
:10044000AB3E8400800155080A168A116E270A12F5
:100450008A11EC294130550603192F2A302A422AE5
:10046000423055060319352A362A422A43305506AA
:1004700003193B2A3C2A422A44305506031D412ACF
:10048000422A882A2A08031D462A472A482AEC2994
:10049000AB30F6000A168A1100260A128A11770874
:1004A00083160313A9007608A800AA01AB0155081A
:1004B00083120313EF00782A2B300A168A116E2755
:1004C0000A128A11EC292D300A168A116E270A1297
:1004D0008A11EC292A300A168A116E270A128A110B
:1004E000EC292F300A168A116E270A128A11EC297C
:1004F000831603135508413A03195C2A033A03197A
:10050000632A013A03196A2A073A0319712AEC2966
:1005100023305506031D8D2A8E2AEC292A08031D37
:10052000922A932A942AEC29AB30F6000A168A11F3
:1005300000260A128A11770883120313ED00760849
:10054000EC00812B6C08831603132807F600831236
:1005500003136D0803186D0A831603132907F700A8
:10056000F801F71BF8037808F90001300A128A1520
:100570009E210A128A11790883160313A3007808B2
:10058000A2007708A1007608A0008F2B6C088316C4
:1005900003132802F600831203136D08031C6D0A6F
:1005A000831603132902F700F801F71BF8037808F4
:1005B000F90001300A128A159E210A128A1179085F
:1005C00083160313A3007808A2007708A100760819
:1005D000A0008F2B6D08F3006C08F2008316031344
:1005E0002908F1002808F0000A168A116F230A1260
:1005F0008A117008F6007108F7000030F71BFF3011
:10060000F800F90001300A128A159E210A128A1197
:10061000790883160313A3007808A2007708A100C5
:100620007608A0008F2B6C086D04031D182B192B66
:100630002F2B00300A168A1148250A128A11013020
:100640000A168A1148250A128A110930F6008030EC
:10065000F7000A168A111E240A128A11EC296C0866
:10066000F6006D08F7000030F71BFF30F800F900C6
:1006700001300A128A159E210A128A117908831202
:100680000313A9007808A8007708A7007608A60039
:10069000831603132808F6002908F7000030F71B1B
:1006A000FF30F800F90001300A128A159E210A1263
:1006B0008A11790883120313AD007808AC0077081B
:1006C000AB007608AA000A128A15DA230A128A11E8
:1006D00083120313290883160313A3008312031341
:1006E000280883160313A200831203132708831616
:1006F0000313A10083120313260883160313A0001B
:100700008F2B6F08413A0319A22A033A0319C62A0C
:10071000013A0319EA2A073A0319132B8F2B0030E9
:100720000A168A1148250A128A1101300A168A11FE
:1007300048250A128A114430831203136F06031DE1
:10074000A22BA32B552C8316031323088312031308
:10075000CD0083160313220883120313CC008316E3
:100760000313210883120313CB00831603132008FD
:1007700083120313CA000A168A1171260A128A11FB
:10078000831203134B0883160313D400831203133D
:100790004A0883160313D300230883120313AF0000
:1007A00083160313220883120313AE008316031368
:1007B000210883120313AD0083160313200883124C
:1007C0000313AC00831603135308F6005408F70014
:1007D000F801F90100300A128A159E210A128A11C5
:1007E000790883120313AB007808AA007708A900E0
:1007F0007608A8000A168A114B230A128A1183125E
:1008000003132B08B7002A08B6002908B5002808EA
:10081000B4004230B300C830B2000030B100003044
:10082000B0000A128A1192240A128A118312031349
:100830003308CD003208CC003108CB003008CA00A4
:100840000A168A1171260A128A11831203134B08A1
:1008500083160313D200831203134A08831603136B
:10086000D100BC3083120313D4000130D5008316AD
:100870000313540883120313D7008316031353087A
:1008800083120313D6008316031352088312031333
:10089000D90083160313510883120313D8000A16D4
:1008A0008A1104230A128A11812CBC30D4000F3023
:1008B000D50083160313230883120313CD00831678
:1008C0000313220883120313CC0083160313210899
:1008D00083120313CB008316031320088312031320
:1008E000CA000A168A1171260A128A11831203138A
:1008F0004B08D7004A08D6000A168A1104230A12A8
:100900008A11BC30F6000030F7000A168A111E2446
:100910000A128A1183160313AA01AB01EC290A12E9
:100920008A110028831203133308BD008030BD05EF
:100930003308B8003807C300B21F9F2CA02CA12C8D
:10094000431443080319A52CA62CB52C430A031DF8
:10095000AA2CAB2CB32C0030B3000030B200003016
:10096000B1000030B000B217BD2C0030B300003031
:10097000B2000030B1000030B00037088039BD0649
:100980003708B8003807C200B61FC72CC82CC92CBE
:10099000421442080319CD2CCE2CDD2C420A031D33
:1009A000D22CD32CDB2C0030B7000030B600003046
:1009B000B5000030B400B617E52C0030B7000030A9
:1009C000B6000030B5000030B40042080319E92C2D
:1009D000EA2CEF2C4308031DEE2CEF2CF82C0030F2
:1009E000B3000030B2000030B1000030B000D32FAF
:1009F0003008F00036080A168A1194230A128A1168
:100A0000710883120313C9007008C8004808B800B1
:100A1000B901BA01BB013B08C1003A08C00039085E
:100A2000BF003808BE004908B800B901BA01BB01CF
:100A30003B08C7003A08C6003908C5003808C4009A
:100A40003108F00035080A168A1194230A128A1117
:100A5000710883120313C9007008C8004808B80061
:100A6000B901BA01BB013808BE07390803110318E0
:100A7000013E03193C2DBF073A0803110318013E3C
:100A80000319432DC0073B0803110318013E031946
:100A90004A2DC1074908B800B901BA01BB0138089D
:100AA000C407390803110318013E0319582DC5075F
:100AB0003A0803110318013E03195F2DC6073B08CE
:100AC00003110318013E0319662DC7073208F00011
:100AD00034080A168A1194230A128A1171088312A3
:100AE0000313C9007008C8004808B800B901BA016A
:100AF000BB013808BE07390803110318013E03196A
:100B0000822DBF073A0803110318013E0319892DEE
:100B1000C0073B0803110318013E0319902DC107BC
:100B20004908B800B901BA01BB013808C40739083F
:100B300003110318013E03199E2DC5073A0803113E
:100B40000318013E0319A52DC6073B08031103181E
:100B5000013E0319AC2DC7070830B8000310BE0DC5
:100B6000BF0DC00DC10DB80BAE2D3108F00034081B
:100B70000A168A1194230A128A1171088312031328
:100B8000C9007008C8004808B8004908B900BA018F
:100B9000BB013808BE07390803110318013E0319C9
:100BA000D22DBF073A0803110318013E0319D92DAE
:100BB000C0073B0803110318013E0319E02DC107CC
:100BC0003008F00035080A168A1194230A128A1197
:100BD000710883120313C9007008C8004808B800E0
:100BE0004908B900BA01BB013808BE07390803112A
:100BF0000318013E0319FD2DBF073A08031103181E
:100C0000013E0319042EC0073B0803110318013EDF
:100C100003190B2EC1070830B8000310BE0DBF0D1D
:100C2000C00DC10DB80B0D2E3008F00034080A16A7
:100C30008A1194230A128A11710883120313C900BE
:100C40007008C8004808B8004908B900BA01BB01DB
:100C50003808BE07390803110318013E0319312E65
:100C6000BF073A0803110318013E0319382EC007C5
:100C70003B0803110318013E03193F2EC107310839
:100C8000F00036080A168A1194230A128A11710894
:100C900083120313C9007008C8004808B800490847
:100CA000B900BA01BB013808C40739080311031899
:100CB000013E03195C2EC5073A0803110318013ED3
:100CC0000319632EC6073B0803110318013E0319DD
:100CD0006A2EC7073208F00035080A168A119423D5
:100CE0000A128A11710883120313C9007008C80020
:100CF0004808B8004908B900BA01BB013808C40760
:100D0000390803110318013E0319872EC5073A0855
:100D100003110318013E03198E2EC6073B08031169
:100D20000318013E0319952EC7073208F000360854
:100D30000A168A1194230A128A1171088312031366
:100D4000C9007008C8004808B8004908B900BA01CD
:100D5000BB0108300310B80DB90DBA0DBB0DFF3E35
:100D6000031DAA2E3808C407390803110318013ED1
:100D70000319BB2EC5073A0803110318013E0319D6
:100D8000C22EC6073B0803110318013E0319C92EE2
:100D9000C7073E08B8003F08B9004008BA0041083C
:100DA000BB0018300310BB0CBA0CB90CB80CFF3EDA
:100DB000031DD22E3808C407390803110318013E59
:100DC0000319E32EC5073A0803110318013E03195E
:100DD000EA2EC6073B0803110318013E0319F12E42
:100DE000C7070830B8000310BE0DBF0DC00DC10D00
:100DF000B80BF32E43084207B800B901B90D380803
:100E0000823EC80039080318013EFF3EC900252F65
:100E10000130B8000310C40DC50DC60DC70DB80BC9
:100E20000A2FC11F142F152F162F44140130B8009C
:100E30000310BE0DBF0DC00DC10DB80B182FFF3034
:100E4000C8070318C90AFF30C907C61F282F292F52
:100E5000082FC201C11F2D2F2E2F4A2FFF303E0514
:100E6000B800FF303F05B900FF304005BA007F30C1
:100E70004105BB003B083A04390438040319412FEB
:100E8000422F452F0130C2004A2F441C482F492FC2
:100E90004A2F422F420803194E2F4F2F802F013027
:100EA000C407003003180130C507003003180130B3
:100EB000C607003003180130C707471C602F612F99
:100EC000802F4408B8004508B9004608BA00470812
:100ED000BB000130BC003B0DBB0CBA0CB90CB80C0C
:100EE000BC0B6B2F3B08C7003A08C6003908C50089
:100EF0003808C4000130C8070318C90A0030C90700
:100F00004908803AFF0080307F02031D892FFF309F
:100F10004802031C8C2F8D2F982F7F3083120313D0
:100F2000C7008030C6000030C5000030C400C92FA3
:100F3000831203134908803AFF0080307F02031DAB
:100F4000A32F013048020318A62FA72FB32F00307C
:100F500083120313C7000030C6000030C500003004
:100F6000C400BD01C92F831203134808C300FF301A
:100F7000C405FF30C5057F30C6050030C705431CDA
:100F8000C22FC32FC42FC6174308B8000310380C54
:100F9000C7003D08C7044708B3004608B20045082B
:100FA000B1004408B00008008313EB30FD0012309C
:100FB000FE00CC30FF00D63084000A168A11BD2214
:100FC0000A128A11831790308400B0300A168A11F1
:100FD000A0220A128A118313A0308400BC300A16A2
:100FE0008A11A0220A128A116730840070300A1612
:100FF0008A11A0220A128A1183010A128A11A729D2
:101000000800F501F31F052806280D28F209F30949
:10101000F20A0319F30A0130F500F11F1028112814
:101020001628F009F109F00A0319F10A7008710491
:1010300003191B281C2849280130F40028280130F6
:101040000310F00DF10DFF3E031D20280130F407C1
:10105000F11F2B282C281F2871087302031D32282A
:1010600070087202031C352836283C287008F202EA
:101070007108031CF303F30201300310F10CF00CB0
:10108000FF3E031D3D280130F402031D4828492876
:101090002C28750803194D284E285328F209F30906
:1010A000F20A0319F30A7308F1007208F00008004D
:1010B0007208730403195D285E286428720873049B
:1010C000031D632864286B2870080A128A15002003
:1010D0000A128A15F1287208093EF40073080318F1
:1010E000013E003EF500740884008317751C8313CD
:1010F0000008F600840A0008F70076087704031950
:1011000082288328B5287208093EF4007308031862
:10111000013E003EF500740884008317751C83139C
:101120000008F600840A0008F7007208023EF80082
:1011300073080318013E003EF90078088400831705
:10114000791C83130008FA00840A0008FB007B085E
:10115000803AFC007708803A7C02031DB1287608AB
:101160007A020318B428B528F1287208840083177E
:10117000731C83130008F400840A0008F500720849
:10118000023EF60073080318013E003EF7007608A1
:1011900084008317771C831300087407F90075080F
:1011A000F8000318F80A801FD628F8037808FA0018
:1011B0007908840083177A1C8313700880007208F2
:1011C000023EF40073080318013E003EF500740867
:1011D00084008317751C831301308007840A031869
:1011E000800A080067308400760883138000840A30
:1011F00077088000840A78088000840A79088000D3
:10120000840A7A0880000030831203136806031DE5
:101210000B2905306706031D0E290F291329831694
:10122000031385012E2900306806031D1929063095
:101230006706031D1C291D29212983160313860116
:101240002E2900306806031D272907306706031D75
:101250002A292B299D298316031387011A30FC00A4
:10126000F830FB00FB0B3229FC0B32290000033065
:101270000A168A1148250A128A150730FC007D30AB
:10128000FB00FB0B4129FC0B412903300A168A1194
:1012900048250A128A151530FC00C630FB00FB0BEE
:1012A0004F29FC0B4F29000003300A168A114825EC
:1012B0000A128A1502300A168A1148250A128A155E
:1012C00002300A168A1148250A128A1508300A16B1
:1012D0008A1148250A128A1500300A168A114825F3
:1012E0000A128A1506300A168A1148250A128A152A
:1012F0000830FD007D157D08FB0004300310FB0C59
:10130000FF3E031D7E297B080F390A168A114825E6
:101310000A128A157D080F390A168A1148250A1201
:101320008A1500300A168A1148250A128A150130DA
:101330000A168A1148250A128A1508008312031317
:10134000A00020080319A529A629BA29F91FA9294F
:10135000AA29BA297609A2007709A3007809A4006E
:101360007909A500A20A0319A30A0319A40A0319FB
:10137000A50AC2297908A5007808A4007708A30067
:101380007608A2007908780477047604031DC92939
:10139000CA29D3290030F9000030F8000030F700E6
:1013A0000030F600532A9630A100E1290130A10750
:1013B00001300310A50CA40CA30CA20CFF3E031DCE
:1013C000D929FE302505031DE629E729D629012A5A
:1013D0000130A1070130A207003003180130A30734
:1013E000003003180130A407003003180130A507AE
:1013F00001300310A50CA40CA30CA20CFF3E031D8E
:10140000F929FF302505031D062A072AE829132A92
:101410000130A1020130FA000310A20DA30DA40DAA
:10142000A50DFA0B0C2AA41B162A172A1D2A023016
:10143000210203181C2A1D2A082A2118202A212AE1
:10144000292AFF30A205FF30A3057F30A405FF3015
:10145000A5050310A10C2108FA00FB01FC01FD0108
:1014600018300310FA0DFB0DFC0DFD0DFF3E031DA2
:10147000312A7A08A2047B08A3047C08A4047D080E
:10148000A50420080319452A462A4B2AF91F492A90
:101490004A2A4B2AA5172508F9002408F800230832
:1014A000F7002208F6000800F200721C582A592A98
:1014B0006E2A83120313670884008317681C831342
:1014C0000130F0006A080739013E682A0310F00D68
:1014D000FF3E031D662A70088004832A83120313CB
:1014E000670884008317681C83130130F0006A08C2
:1014F0000739013E7D2A0310F00DFF3E031D7B2AB4
:101500007008FF3A8005F21C862A872A9D2A670800
:1015100084008317681C83130130F0006A0CF1000B
:10152000F10C710C0739013E972A0310F00DFF3EB4
:10153000031D952A70088004B32A67088400831766
:10154000681C83130130F0006A0CF100F10C710C7F
:101550000739013EAD2A0310F00DFF3E031DAB2AF3
:101560007008FF3A8005721DB62AB72ACA2A670892
:1015700084008317681C83130130F0006B0807395F
:10158000013EC42A0310F00DFF3E031DC22A70085D
:101590008004DD2A670884008317681C83130130E8
:1015A000F0006B080739013ED72A0310F00DFF3E0B
:1015B000031DD52A7008FF3A8005F21DE02AE12AB2
:1015C000F72A670884008317681C83130130F00032
:1015D0006B0CF100F10C710C0739013EF12A03107C
:1015E000F00DFF3E031DEF2A700880040D2B6708E5
:1015F00084008317681C83130130F0006B0CF1002A
:10160000F10C710C0739013E072B0310F00DFF3E62
:10161000031D052B7008FF3A800508000130831276
:101620000313B500B21B152B172B0130182B0030FC
:10163000B80083160313250883120313B70083161B
:101640000313240883120313B60038080319292B47
:101650002A2B402BFF30B6070318B70AFF30B70715
:101660003808031D342B352B3A2B2B30B3000030B8
:10167000B4003E2B2D30B3000030B4003308B80066
:101680001F30B9000030BA0083160317AF01872B53
:10169000FF30B9070318BA0AFF30BA073908903E7D
:1016A00084000A30F0000030F1003208F300310805
:1016B000F2000A128A1501200A128A157108F70031
:1016C0007008F6000A168A11A8220A128A157608EE
:1016D000303E8317800083120313B501FF30B60735
:1016E0000318B70AFF30B7070A30F0000030F100E6
:1016F0003208F3003108F2000A168A119D250A12F9
:101700008A15710883120313B2007008B1008312A6
:1017100003133A08803AFF0080307F02031D922BAA
:1017200001303902031C952B962BB62B8312031321
:1017300031083204031D9D2B9E2B482B3508031DB9
:10174000A22BA32B482B3708803AFF0080307F0262
:10175000031DAC2B01303602031CAF2BB02BB62B74
:1017600083120313EE18B52BB62B482B83120313E9
:1017700038080319BC2BBD2BC92BFF30B907031840
:10178000BA0AFF30BA073908903E84003808831738
:1017900080002F08A8003008A9003908903EAA0050
:1017A0003708AC003608AB000A168A11A2240A12C8
:1017B0008A150800831203132D08B7008030B7057F
:1017C0002D08AE002E07BE00AC1FE72BE82BE92B3F
:1017D0003E143E080319ED2BEE2BFE2B3E0A031D93
:1017E000F22BF32BFB2B0030AD000030AC000030AF
:1017F000AB000030AA00AC17AD01062C0030AD00E4
:101800000030AC000030AB000030AA00290880395D
:10181000B7062908AE002E07BF00A81F102C112CF8
:10182000122C3F143F080319162C172C272C3F0AA3
:10183000031D1B2C1C2C242C0030A9000030A800F8
:101840000030A7000030A600A817A9012F2C0030F7
:10185000A9000030A8000030A7000030A600290829
:10186000280427042604031D362C372C4E2C003068
:10187000AD000030AC000030AB000030AA0080307A
:10188000AC047F30AD043708AD042D08A9002C0846
:10189000A8002B08A7002A08A600A32D3E08031DB8
:1018A000522C532C5C2C0030A9000030A8000030D2
:1018B000A7000030A600A32D3E08AE00AF012F0800
:1018C000B1003F082E02B000031CB10330087F3E78
:1018D000B80031080318013E003EB9002D08B600DB
:1018E0002C08B5002B08B4002A08B3000030AD0066
:1018F0000030AC000030AB000030AA000030BD006A
:101900000030BC000030BB000030BA00BF01D02C5A
:101910003F0803198C2C8D2CAD2C0130AE00031028
:10192000B30DB40DB50DB60DAE0B8F2C0130AE005E
:101930000310AA0DAB0DAC0DAD0DAE0B982CBD1F59
:10194000A22CA32CA42C2A140130AE000310BA0D33
:10195000BB0DBC0DBD0DAE0BA62C29083602031D18
:10196000BB2C28083502031DBB2C27083402031D9D
:10197000BB2C26083302031CBE2CBF2CCE2C3D17DB
:101980002608B3022708031C270FB4022808031CEB
:10199000280FB5022908031C290FB6020130BF0722
:1019A0001A303F02031CD52CD62C882C360835045F
:1019B000340433040319DD2CDE2CFD2C3A14FD2CE9
:1019C0000130AE000310AA0DAB0DAC0DAD0DAE0B8A
:1019D000E22CBD1FEC2CED2CEE2C2A140130AE00B5
:1019E0000310BA0DBB0DBC0DBD0DAE0BF02CFF30BE
:1019F000B8070318B90AFF30B907AC1F002D012D35
:101A0000E02CBF01BD1F052D062D222DFF303A050C
:101A1000AE00FF303B05AF00FF303C05B0007F302B
:101A20003D05B100310830042F042E040319192D8F
:101A30001A2D1D2D0130BF00222D2A1C202D212DF5
:101A4000222D1A2D3F080319262D272D582D013040
:101A5000AA07003003180130AB070030031801302B
:101A6000AC07003003180130AD072D1C382D392D7F
:101A7000582D2A08AE002B08AF002C08B0002D0806
:101A8000B1000130B200310DB10CB00CAF0CAE0C96
:101A9000B20B432D3108AD003008AC002F08AB006D
:101AA0002E08AA000130B8070318B90A0030B90798
:101AB0003908803AFF0080307F02031D612DFF301E
:101AC0003802031C642D652D732DFF308312031320
:101AD000B8000030B9000030AD000030AC0000307C
:101AE000AB000030AA00831203133908803AFF00CC
:101AF00080307F02031D7E2D013038020318812DB6
:101B0000822D8F2D83120313B801B9010030AD006F
:101B10000030AC000030AB000030AA00B7018312E7
:101B200003133808BE003E1C962D972D992DAC1737
:101B30009B2D7F30AC053E08AE0003102E0CAD008F
:101B40003708AD04452C08007308F8008030F8050C
:101B5000730883120313A0002007FA00F21FB12DAF
:101B6000B22DB32D7A147A080319B72DB82DC82DCC
:101B70007A0A031DBC2DBD2DC52D0030F3000030A9
:101B8000F2000030F1000030F000F217F301D02D28
:101B90000030F3000030F2000030F1000030F000BF
:101BA0007708F9008030F905790878060319D92DEE
:101BB000DA2DDB2D78177708A0002007F900F61F33
:101BC000E22DE32DE42D791479080319E82DE92D90
:101BD000F92D790A031DED2DEE2DF62D0030F700BD
:101BE0000030F6000030F5000030F400F617F70181
:101BF000012E0030F7000030F6000030F500003014
:101C0000F4007A0879020318062E072E2B2E781F6F
:101C10000A2E0B2E0D2E8030F8067A08FB0079086C
:101C2000FA007B08F9007008FB007408F0007B08DC
:101C3000F4007108FB007508F1007B08F5007208DC
:101C4000FB007608F2007B08F6007308FB007708BB
:101C5000F3007B08F700FB017908A000A10121082F
:101C6000A3007A082002A200031CA3032308803AE1
:101C7000FF0080307F02031D3F2E1A302202031C1A
:101C8000422E432E7A2E7308720471047004031DD1
:101C90004A2E4C2E01304D2E0030FB000030F30058
:101CA0000030F2000030F1000030F0007908FA0056
:101CB000802E7B1C5C2E5D2E662E7B088312031308
:101CC000A0000310200C0138FB00682E0310FB0C51
:101CD000701C6B2E6C2E6D2EFB17013083120313BC
:101CE000A000730DF30CF20CF10CF00CA00B712E94
:101CF0000130FA0779087A02031C7F2E802E592EB4
:101D0000781B832E842ECF2E7A08031D882E892ED1
:101D1000922E0030F3000030F2000030F10000306D
:101D2000F000FF2F7408F007750803110318013E37
:101D300003199B2EF107760803110318013E0319BE
:101D4000A22EF207770803110318013E0319A92EEA
:101D5000F307731CAC2EAD2E872F7B1CB02EB12E3B
:101D6000BA2E7B0883120313A0000310200C013845
:101D7000FB00BC2E0310FB0C701CBF2EC02EC12E0E
:101D8000FB17013083120313A000730DF30CF20C48
:101D9000F10CF00CA00BC52E0130FA07872F730849
:101DA000803AFF007708803A7F02031DE12E760813
:101DB0007202031DE12E75087102031DE12E7408E5
:101DC00070020318E42EE52E3E2FFF30831203131A
:101DD000A000FF30A100FF30A200FF30A300740874
:101DE000A4007508A5007608A6007708A70070086B
:101DF000A4027108031C710FFE2EFF2EA5027208AB
:101E0000031C720F042F052FA6027308031C730F07
:101E10000A2F0B2FA7022408A00725080318250F57
:101E2000122F132FA10726080318260F182F192F7A
:101E3000A20727080318270AA3072308F30022088C
:101E4000F2002108F1002008F0008030F8067B0342
:101E5000FF3AFB007B08031D2E2F2F2F4C2F013044
:101E6000F007003003180130F1070030031801308B
:101E7000F207003003180130F3074C2F7408F0020A
:101E80007508031C750FF1027608031C760FF20229
:101E90007708031C770FF30273087204710470044F
:101EA000031D532F542F832F7B08031D582F592FA9
:101EB000832F0030F3000030F2000030F1000030DA
:101EC000F000FF2F013083120313A0000310F00D68
:101ED000F10DF20DF30DA00B662FFB1F702F712F6C
:101EE000722F70147B1C752F762F7A2F03147B0DA5
:101EF000FB007C2F0310FB0D7A080319802F812F24
:101F0000832F0130FA02F21F862F872F622FF901EB
:101F1000FB1F8B2F8C2F9A2F7B087F390319912F52
:101F2000922F952F0130F9009A2F701C982F992F1E
:101F30009A2F922F790803199E2F9F2FD32F0130AC
:101F4000F007003003180130F107003003180130AA
:101F5000F207003003180130F307731CB02FB12FC4
:101F6000D32F700883120313A0007108A100720818
:101F7000A2007308A3000130A400230DA30CA20C3F
:101F8000A10CA00CA40BBD2F2308F3002208F20023
:101F90002108F1002008F0007A0A0319D02FD12F70
:101FA000D32F0130FA077A0A0319D72FD82FDD2F44
:101FB0007A08031DDC2FDD2FEB2F0030F3000030FB
:101FC000F2000030F1000030F0007A08031DE92F24
:101FD000EA2FEB2FF8017A1CEE2FEF2FF12FF217DB
:101FE000F32F7F30F2057A0883120313A000031049
:101FF000200CF300F81FFD2FFE2FFF2FF317080012
:10200000FF1B0A2883137F1883170008840A03190B
:10201000FF0A080010308A000408840A820700348E
:10202000253475342E34253430343234753400344C
:102030004534723472346F3472340034253464346D
:0220400000346A
:1025400064008001840A0406031900340406A12AE9
:10255000F71BAB2AAC2AAD2AB82A7609F80077090E
:10256000F900F80A0319F90A7808F6007908F70063
:1025700008007E088A007F0882000A168A11B922A4
:102580000A168A118000840A04087D0603190034A3
:10259000FF0A0319FE0ABD2A313432343334413480
:1025A00034343534363442343734383439344334BF
:1025B0002A34303423344434073400341A342C346D
:1025C0003E34831203134908CB00F32A4708BB00AB
:1025D0004808BC004B30BD004A08BE000A128A11F0
:1025E000AF200A168A11831203134B0884000A16BF
:1025F0008A110A200A168A11003A031D002B012BAA
:10260000E62AC701C8010800563083120313DB0015
:102610005408DC000030DD00DE01DF01E501E601E9
:102620005C30C7000030C8005508C9005B30CA00E4
:102630000A168A11E1220A168A11831203135E0810
:102640005407DA005A0884008313800108008316B7
:102650000313AA01AB01A801A90183120313EC0122
:10266000ED01003083160313A3000030A2000030F8
:10267000A1000030A00083120313EF0100300A16FE
:102680008A1148250A168A1101300A168A1148252E
:102690000A168A110800803083120313AB062F0834
:1026A000F3002E08F2002D08F1002C08F0002B0892
:1026B000F7002A08F6002908F5002808F4000A1295
:1026C0008A15A4250A168A11730883120313AB0016
:1026D0007208AA007108A9007008A8000800F40197
:1026E000F501701C742B752B7B2B7208F4070318F3
:1026F000F50A7308F50701300310F20DF30DFF3EE4
:10270000031D7C2B01300310F10CF00CFF3E031D68
:10271000832B70087104031D8E2B8F2B712B750872
:10272000F1007408F0000800F800F401F5017008E9
:10273000F200F3017208F6007308F700781CA12B71
:10274000A22BA82B7608F4070318F50A7708F507DB
:1027500001300310F60DF70DFF3E031DA92B0310EA
:10276000F80C7808031DB52BB62B9E2B7508F100CD
:102770007408F000080083120313A601A701D82BE8
:102780002508A300A4012308F0002408F100210873
:10279000F2002208F3000A128A1558200A168A113C
:1027A000013083120313A6070318A70A0030A707F6
:1027B00026082007A3002308840083170008A5002B
:1027C0002508031DE42BE52BC02B080070087104BD
:1027D0000319EB2BEC2B192C0130F400F82B0130F2
:1027E0000310F00DF10DFF3E031DF02B0130F40737
:1027F000F11FFB2BFC2BEF2B71087302031D022C26
:1028000070087202031C052C062C0C2C7008F202B6
:102810007108031CF303F30201300310F10CF00CF8
:10282000FF3E031D0D2C0130F402031D182C192C42
:10283000FC2B7308F1007208F0000800FB01FC019A
:10284000432C7B087607F9007708F8000318F80A8C
:10285000FB1F2B2CF8037808FA007A088312031365
:10286000FF00790884000A168A1100200A168A11CE
:102870000A168A116E270A168A110130FB070318FF
:10288000FC0A0030FC077B087607F9007708F8009F
:102890000318F80AFB1F4D2CF8037808FA007A0891
:1028A00083120313FF00790884000A168A1100209E
:1028B0000A168A11003A031D5E2C5F2C212C080099
:1028C000F401F501700871040319672C682C9D2C24
:1028D0000130F600742C01300310F00DF10DFF3EB5
:1028E000031D6C2C0130F607F11F772C782C6B2C14
:1028F00001300310F40DF50DFF3E031D792C710816
:102900007302031D852C70087202031C882C892C0D
:10291000902C7008F2027108031CF303F302741484
:1029200001300310F10CF00CFF3E031D912C01301F
:10293000F602031D9C2C9D2C782C7508F100740860
:10294000F0000800831203136E1CA72CA82CB32CD4
:102950002A08A0002808A1002908A2000A168A1146
:10296000BB230A168A1183120313AC1FB82CB92C8F
:10297000BB2CAB01AC01AD01AE01D52C2030F00079
:102980000030F100831203132808F2002908F30035
:102990000A128A1558200A168A110130831203136D
:1029A000AD070318AE0A0030AE072E08803AFD00CE
:1029B0002C08803A7D02031DDF2C2B082D02031CFE
:1029C000E22CE32CBE2C831203136E18E82CE92CA6
:1029D000F42C2A08A0002808A1002908A2000A1641
:1029E0008A11BB230A168A110800F901FA01760838
:1029F00084008313000884000A168A110A200A162C
:102A00008A112A3A031D052D062D322D76088400E1
:102A100001308007770884000008FF00023080073B
:102A20007F0884000008F900840A0008FA00432D9A
:102A30007A08F1007908F0000A30F2000030F30063
:102A40000A168A116F230A168A1178087007F9008E
:102A50000030031801307107FA0076088400013055
:102A60008313800776088400000884000A168A1100
:102A70000A200A168A11D03EF8000A307802031C98
:102A8000422D432D182D7A08F7007908F60008002A
:102A9000F50083120313670884008317681C8313EF
:102AA0000130F30069080739013E582D0310F30D7A
:102AB000FF3E031D562D7308FF3A800575080A1264
:102AC0008A1554220A168A11831203136708840098
:102AD0008317681C83130130F300690CF400F40CB5
:102AE000740C0739013E762D0310F30DFF3E031DD4
:102AF000742D730880040630F4003030F300F30BBB
:102B00007F2DF40B7F2D00008312031367088400D0
:102B10008317681C83130130F300690CF400F40C74
:102B2000740C0739013E962D0310F30DFF3E031D73
:102B3000942D7308FF3A80050800F501F11FA12DBF
:102B4000A22DA92DF009F109F00A0319F10A0130AB
:102B5000F500F31FAC2DAD2DB42DF209F309F20AE7
:102B60000319F30A0130F506F601F7017008710444
:102B70000319BB2DBC2DF12D0130F400C82D0130FF
:102B80000310F00DF10DFF3E031DC02D0130F407C1
:102B9000F11FCB2DCC2DBF2D01300310F60DF70DFD
:102BA000FF3E031DCD2D71087302031DD92D700842
:102BB0007202031CDC2DDD2DE42D7008F202710879
:102BC000031CF303F302761401300310F10CF00C34
:102BD000FF3E031DE52D0130F402031DF02DF12D04
:102BE000CC2D75080319F52DF62DFB2DF609F709E7
:102BF000F60A0319F70A7708F1007608F0000800D2
:102C0000FB01FC01FA01062E0130F607760884006C
:102C100020308313000603190E2E0F2E042E760883
:102C20008400F7300007F80005307802031C192EE5
:102C30001A2E042E760884002D300006031D212E46
:102C4000222E272E0130FA000130F607502E76088A
:102C500084002B300006031D2E2E2F2E502E242EE6
:102C6000760884007C08F1007B08F0000A30F2004E
:102C70000030F3000A168A116F230A168A117108B0
:102C8000F900831300087002F800031CF9037808A8
:102C9000303EFB0079080318013E003EFC00242E64
:102CA00076088400D0300007F8000A307802031C50
:102CB0005A2E5B2E302E7A08031D5F2E602E6C2E4E
:102CC0007B09F8007C09F900F80A0319F90A780869
:102CD000F6007908F700702E7C08F7007B08F600F4
:102CE00008000310831203134C0D4D0DD30053083D
:102CF000031D7B2E7C2E852E0030CD000030CC00B5
:102D00000030CB000030CA00E62E4A08CE004B0847
:102D1000CF004C08D0004D08D1001F300310D10C5B
:102D2000D00CCF0CCE0CFF3E031D8E2E4E08D200D1
:102D3000CC17FF30CA05FF30CB05FF30CC05003083
:102D4000CD059630D302D31FA62EA72EBF2E530833
:102D5000803A973E0318AD2EAE2EAF2E7C2E01305A
:102D60000310CD0CCC0CCB0CCA0CFF3E031DB02EB7
:102D70000130D307031DBD2EBE2EAF2ED62E203020
:102D80005302031CC42EC52ED12E7C2E0130CE0042
:102D90000310CA0DCB0DCC0DCD0DCE0BC82E0130BE
:102DA000D3025308031DD52ED62EC62E5208031962
:102DB000DA2EDB2EE62ECA09CB09CC09CD09CA0AC8
:102DC0000319CB0A0319CC0A0319CD0A08000130F4
:102DD00083120313B300831603132508831203130E
:102DE000B50083160313240883120313B4001F30A5
:102DF000B6000030B70083160317AF01352FFF3040
:102E0000B6070318B70AFF30B7073608903E8400AC
:102E10000A30F0000030F1003208F3003108F2000F
:102E20000A168A11E6230A168A117008303E8317A3
:102E3000800083120313B301FF30B4070318B50AEF
:102E4000FF30B5070A30F0000030F1003208F3001F
:102E50003108F2000A168A1160240A168A117108D4
:102E600083120313B2007008B100831203133608F3
:102E7000370403193C2F3D2F5B2F31083204031D0B
:102E8000422F432FFF2E3308031D472F482FFF2EBD
:102E90003508803AFF0080307F02031D512F01303A
:102EA0003402031C542F552F5B2F83120313EE188B
:102EB0005A2F5B2FFF2E831203132F08A800300810
:102EC000A9003608903EAA003508AC003408AB00D3
:102ED0000A168A11A2240A168A110800F500831224
:102EE0000313670884008317681C83130130F30001
:102EF00069080739013E7E2F0310F30DFF3E031DC5
:102F00007C2F730880047508F30004300310F30C61
:102F1000FF3E031D862F73080F390A128A155422AB
:102F20000A168A1183120313670884008317681C2A
:102F300083130130F300690CF400F40C740C0739AE
:102F4000013EA42F0310F30DFF3E031DA22F7308B3
:102F500080040D30F300F30BAB2F831203136708CB
:102F600084008317681C83130130F300690CF4009C
:102F7000F40C740C0739013EBF2F0310F30DFF3E14
:102F8000031DBD2F7308FF3A800575080F390A121B
:102F90008A1554220A168A118312031367088400C3
:102FA0008317681C83130130F300690CF400F40CE0
:102FB000740C0739013EDE2F0310F30DFF3E031D95
:102FC000DC2F730880040D30F300F30BE52F831220
:102FD0000313670884008317681C83130130F30010
:102FE000690CF400F40C740C0739013EF92F03103E
:102FF000F30DFF3E031DF72F7308FF3A800508000D
:04400E00F22FFF3F4F
:00000001FF
