:060000000A128A11FC2F18
:100E38008312031306148610080083120313061086
:100E48008614080083120313061086100800831600
:100E580003130715FF3092000C3083120313970019
:100E68009501CF309705073092008C108C1C3D2FD0
:100E78003E2F3A2F8316031307110800043071021E
:100E8800003003197002031C4A2F4B2F4F2FFF30DD
:100E9800F0000330F1007108F3007008F20003104D
:100EA800F30CF20C0310F30CF20C72088312031308
:100EB800950070080339F200F20E17087206CF3950
:100EC800720697000800F701F8010630831603132D
:100ED8009F008316031788018901831603130610E0
:100EE8008610061586158113151595150A128A118F
:100EF8002B270A128A110A128A1126270A128A1126
:100F08000030F000F1000A128A1142270A128A11F1
:100F1800831203130619912F922FA72F861D952F41
:100F2800962FA72F0130F7000030F8000330F600A5
:100F38000830F5007730F400F40BA02FF50BA02F44
:100F4800F60BA02FD62F8619AA2FAB2FC02F061D60
:100F5800AE2FAF2FC02FFF30F700FF30F80003305F
:100F6800F6000830F5007730F400F40BB92FF50BD4
:100F7800B92FF60BB92FD62F0619C32FC42FD62F8A
:100F88008619C72FC82FD62FF701F8010330F600AE
:100F98000830F5007730F400F40BD02FF50BD02F84
:100FA800F60BD02F77037804031DDB2FDC2FEB2FF4
:100FB8000A128A111C270A128A11FF30F000033026
:100FC800F1000A128A1142270A128A118C2F770A15
:100FD800031DF22F780A031DF22FF32F7F2F0A1219
:100FE8008A1121270A128A11E12F0A128A11002870
:080FF80083010A128A11672F20
:04400E00F12FFF3F50
:00000001FF
