:060000000A128A11FC2F18
:100E8C000330831603178800890101308312031382
:100E9C009F008030831603139F000800F4000D3070
:100EAC00F200F20B572F8330831203139F05740843
:100EBC00F20001300310F20DFF3E031D602F0310F2
:100ECC00720D9F040630F3003030F200F20B6C2FE1
:100EDC00F30B6C2F0000831203139F149F18772FB2
:100EEC00782F742F1E08F100831603131E08F000D0
:100EFC0008000A128A1146270A128A118316031354
:100F0C0007158714FF3092000C30831203139700DF
:100F1C000C309D000C3097000C309D008C1007306D
:100F2C0092008C1C9A2F9B2F972F831603138701EB
:100F3C0000300A128A1154270A128A117108F9001A
:100F4C007008F80001300A128A1154270A128A110B
:100F5C007108FB007008FA007908F6007808F500B3
:100F6C000310F60CF50C0310F60CF50C7508831237
:100F7C000313950078080339F500F50E170875066C
:100F8C00CF39750697007B08F6007A08F500031038
:100F9C00F60CF50C0310F60CF50C75089B007A0892
:100FAC000139F500F50E1D087506EF3975069D0023
:100FBC007B08F6007A08F5000310F60CF50C7508A2
:100FCC000139F700F70EF70D1D087706DF397706A4
:100FDC009D000D30F600FB30F500F50BF32FF60BF2
:100FEC00F32FF82F9E2F0A128A11002883010A1260
:040FFC008A117F2FA8
:04400E00F12FFF3F50
:00000001FF
