:060000000A128A110C280F
:10000800FE00030EF0000A08F1000A128A110F2AF6
:100018000A128A110F2883133E30FD000230FE00B9
:100028002230FF00323084000A128A1100220A129C
:100038008A1183010A128A1121288316031788015D
:1000480089018316031301087F398100880187011C
:10005800FF30860083120313880187018316031378
:1000680001138B100B168B1783120313B001B10108
:10007800E830F2000330F300831203133108F5006F
:100088003008F4000A128A1140210A128A117308F2
:1000980083120313A7007208A6000A30A0000030DC
:1000A800A1006430F2000030F3003108F500300898
:1000B800F4000A128A1140210A128A117308831265
:1000C8000313A3007208A2000A128A11A3210A12BC
:1000D8008A11831203132108A9002008A8000A30F6
:1000E800A0000030A1000A30F2000030F30031080F
:1000F800F5003008F4000A128A1140210A128A1108
:10010800730883120313A3007208A2000A128A114B
:10011800A3210A128A11831203132108AB002008B5
:10012800AA000A30A0000030A1003108A30030085E
:10013800A2000A128A11A3210A128A118312031338
:100148002108AD002008AC00AE01AF01F7308312E2
:10015800031387002608323E8400831300088800B2
:10016800033083120313A5009730A400A40BBA2808
:10017800A50BBA28FB308312031387002808323EE8
:100188008400831300088800033083120313A5003A
:100198009730A400A40BCE28A50BCE28FD308312DF
:1001A800031387002A08323E84008313000888005E
:1001B800033083120313A5009730A400A40BE22890
:1001C800A50BE228FE308312031387002C08323E69
:1001D8008400831300088800033083120313A500EA
:1001E8009730A400A40BF628A50BF628013083123B
:1001F8000313AE070318AF0A0030AF072F08803A81
:10020800FF0080307F02031D0B2905302E02031CDE
:100218000E290F29AA28831203133C033D04031D4A
:10022800162917292B290130B0070318B10A003005
:10023800B1073108803AFF00A7307F02031D262945
:1002480010303002031C29292A293C283828300874
:100258003104031D3029312936290F30B0002730E9
:10026800B1003C28FF30B0070318B10AFF30B107CE
:100278003C280A128A110C28F701F31F4429452942
:100288004C29F209F309F20A0319F30A0130F700BD
:10029800F51F4F2950295729F409F509F40A0319BC
:1002A800F50A0130F706F801F90172087304031919
:1002B8005E295F2994290130F6006B29013003106B
:1002C800F20DF30DFF3E031D63290130F607F31FFE
:1002D8006E296F29622901300310F80DF90DFF3ED0
:1002E800031D702973087502031D7C2972087402A6
:1002F800031C7F29802987297208F4027308031CCC
:10030800F503F502781401300310F30CF20CFF3EEC
:10031800031D88290130F602031D932994296F29AA
:1003280077080319982999299E29F809F909F80ADB
:100338000319F90A7908F3007808F2000800FB01AC
:1003480083120313A31FA929AA29B129A209A30962
:10035800A20A0319A30A0130FB00A11FB429B52979
:10036800BA29A009A109A00A0319A10A2008210491
:100378000319BF29C029ED290130FA00CC29013021
:100388000310A00DA10DFF3E031DC4290130FA077B
:10039800A11FCF29D029C32921082302031DD6294B
:1003A80020082202031CD929DA29E0292008A20200
:1003B8002108031CA303A30201300310A10CA00C05
:1003C800FF3E031DE1290130FA02031DEC29ED2946
:1003D800D0297B080319F129F229F729A209A309D1
:1003E800A20A0319A30A2308A1002208A0000800F2
:1003F8007E088A007F0882000A128A11FC210A12EC
:100408008A118000840A04087D0603190034FF0A53
:100418000319FE0A002A8B1C122A132A1B2A83128C
:100428000313BC09BD09BC0A0319BD0A8B10710866
:100438008A00700E8300FE0E7E0E09003F340634DB
:100448005B344F3466346D347D3407347F3467341D
:040458000134003437
:04400E00F12FFF3F50
:00000001FF
