:100000000A128A11CE2FFF1B0D2883137F18831726
:100010000008840A0319FF0A080000308A00040857
:10002000840A8207003456346F346C34743461347B
:100030006A346534203431343A3420340034563450
:100040006F346C34743461346A346534203432343F
:100050003A3420340034253475342E342534753444
:0200600000346A
:1000EC000800073400341A342C343E346400800188
:1000FC00840A04060319003404067D280330831691
:10010C000317880089010130831203139F0080308C
:10011C00831603139F000800323083120313B700B9
:10012C003008B8000030B900BA01BB01C101C201EE
:10013C003830AC000030AD003108AE003730AF00C5
:10014C000A128A11B5200A128A11831203133A0873
:10015C003007B60036088400831380010800831230
:10016C0003132E08FD00C928831203132C08A000CA
:10017C002D08A1007D30A2002F08A3000A128A11BD
:10018C0081250A128A117D0884000A128A110D2019
:10019C000A128A11003A031DD428D528BA288312D2
:1001AC000313AC01AD010800F4000330F200F20BB4
:1001BC00DD288330831203139F057408F20001308D
:1001CC000310F20DFF3E031DE6280310720D9F0471
:1001DC000630F3003030F200F20BF228F30BF22869
:1001EC000000831203139F149F18FD28FE28FA2881
:1001FC001E08F100831603131E08F0000800700897
:10020C00710403190A290B2938290130F400172924
:10021C0001300310F00DF10DFF3E031D0F290130CD
:10022C00F407F11F1A291B290E2971087302031DEB
:10023C00212970087202031C242925292B297008F6
:10024C00F2027108031CF303F30201300310F10CEA
:10025C00F00CFF3E031D2C290130F402031D37293D
:10026C0038291B297308F1007208F0000800FB0103
:10027C00FC0162297B087607F9007708F80003185F
:10028C00F80AFB1F4A29F8037808FA007A08831247
:10029C000313FF00790884000A128A1103200A1242
:1002AC008A110A128A115C220A128A110130FB0788
:1002BC000318FC0A0030FC077B087607F900770866
:1002CC00F8000318F80AFB1F6C29F8037808FA00E9
:1002DC007A0883120313FF00790884000A128A112A
:1002EC0003200A128A11003A031D7D297E29402918
:1002FC000800F401F5017008710403198629872997
:10030C00BC290130F600932901300310F00DF10DDA
:10031C00FF3E031D8B290130F607F11F9629972903
:10032C008A2901300310F40DF50DFF3E031D9829A9
:10033C0071087302031DA42970087202031CA729FB
:10034C00A829AF297008F2027108031CF303F30209
:10035C00741401300310F10CF00CFF3E031DB02996
:10036C000130F602031DBB29BC2997297508F10041
:10037C007408F00008000030FC000030FB00003076
:10038C00FA000030F900701CCC29CD29E42974083E
:10039C00F907750803110318013E0319D629FA074A
:1003AC00760803110318013E0319DD29FB077708B2
:1003BC0003110318013E0319E429FC070130F8006E
:1003CC000310F40DF50DF60DF70DF80BE6290130C1
:1003DC000310F30CF20CF10CF00CFF3E031DEE2994
:1003EC007308720471047004031DFD29FE29C929C8
:1003FC007C08F3007B08F2007A08F1007908F00021
:10040C000800F50083160313400884008317411C71
:10041C0083130130F30042080739013E172A0310F9
:10042C00F30DFF3E031D152A7308FF3A800575086E
:10043C000A128A11C7240A128A1183160313400860
:10044C0084008317411C83130130F300420CF40029
:10045C00F40C740C0739013E352A0310F30DFF3EE2
:10046C00031D332A730880040630F4003030F30087
:10047C00F30B3E2AF40B3E2A0000831603134008AC
:10048C0084008317411C83130130F300420CF400E9
:10049C00F40C740C0739013E552A0310F30DFF3E82
:1004AC00031D532A7308FF3A80050800F5008316D4
:1004BC000313400884008317411C83130130F3009D
:1004CC0042080739013E6C2A0310F30DFF3E031D51
:1004DC006A2A730880047508F30004300310F30CC7
:1004EC00FF3E031D742A73080F390A128A11C724A0
:1004FC000A128A1183160313400884008317411CC7
:10050C0083130130F300420CF400F40C740C073923
:10051C00013E922A0310F30DFF3E031D902A73082F
:10052C0080040D30F300F30B992A83160313400853
:10053C0084008317411C83130130F300420CF40038
:10054C00F40C740C0739013EAD2A0310F30DFF3E79
:10055C00031DAB2A7308FF3A800575080F390A1280
:10056C008A11C7240A128A118316031340088400C7
:10057C008317411C83130130F300420CF400F40C7C
:10058C00740C0739013ECC2A0310F30DFF3E031DFA
:10059C00CA2A730880040D30F300F30BD32A831698
:1005AC000313400884008317411C83130130F300AC
:1005BC00420CF400F40C740C0739013EE72A0310CA
:1005CC00F30DFF3E031DE52A7308FF3A8005080072
:1005DC0083120313A901A31FF42AF52A022BA009E5
:1005EC00A109A209A309A00A0319A10A0319A20AC5
:1005FC000319A30A0130A900A71F052B062B132BE7
:10060C00A409A509A609A709A40A0319A50A03198F
:10061C00A60A0319A70A0130A9060030AD00003064
:10062C00AC000030AB000030AA00230822042104E7
:10063C0020040319222B232B6E2B0130A800312B05
:10064C000130FD000310A00DA10DA20DA30DFD0B9B
:10065C00282B0130A807A31F342B352B262B013058
:10066C00FD000310AA0DAB0DAC0DAD0DFD0B372B22
:10067C0023082702031D4C2B22082602031D4C2B9A
:10068C0021082502031D4C2B20082402031C4F2B90
:10069C00502B5F2B2008A4022108031C210FA5025C
:1006AC002208031C220FA6022308031C230FA702F7
:1006BC002A1401300310A30CA20CA10CA00CFF3EB9
:1006CC00031D602B0130A802031D6D2B6E2B352BE7
:1006DC0029080319722B732B7E2BAA09AB09AC09C1
:1006EC00AD09AA0A0319AB0A0319AC0A0319AD0A1E
:1006FC002D08A3002C08A2002B08A1002A08A0009A
:10070C0008007208730403198C2B8D2B932B720821
:10071C007304031D922B932B9A2B70080A128A11C7
:10072C0076200A128A11202C7208093EF4007308F4
:10073C000318013E003EF500740884008317751CF5
:10074C0083130008F600840A0008F7007608770483
:10075C000319B12BB22BE42B7208093EF400730879
:10076C000318013E003EF500740884008317751CC5
:10077C0083130008F600840A0008F7007208023E92
:10078C00F80073080318013E003EF9007808840055
:10079C008317791C83130008FA00840A0008FB00F5
:1007AC007B08803AFC007708803A7C02031DE02B22
:1007BC0076087A020318E32BE42B202C72088400B1
:1007CC008317731C83130008F400840A0008F500D7
:1007DC007208023EF60073080318013E003EF70053
:1007EC00760884008317771C831300087407F900BC
:1007FC007508F8000318F80A801F052CF803780810
:10080C00FA007908840083177A1C8313700880001F
:10081C007208023EF40073080318013E003EF50016
:10082C00740884008317751C831301308007840AB5
:10083C000318800A0800C0308400760883138000F7
:10084C00840A77088000840A78088000840A790872
:10085C008000840A7A088000003083160313410656
:10086C00031D3A2C05304006031D3D2C3E2C402C1C
:10087C008501572C00304106031D462C06304006DE
:10088C00031D492C4A2C4C2C8601572C0030410658
:10089C00031D522C07304006031D552C562CC62C1C
:1008AC0087011A30FC00F830FB00FB0B5B2CFC0BB7
:1008BC005B2C000003300A128A1107220A128A11DB
:1008CC000730FC007D30FB00FB0B6A2CFC0B6A2C08
:1008DC0003300A128A1107220A128A111530FC0001
:1008EC00C630FB00FB0B782CFC0B782C0000033083
:1008FC000A128A1107220A128A1102300A128A116C
:10090C0007220A128A1102300A128A1107220A12CD
:10091C008A1108300A128A1107220A128A11003031
:10092C000A128A1107220A128A1106300A128A1137
:10093C0007220A128A110830FD007D157D08FB0084
:10094C0004300310FB0CFF3E031DA72C7B080F3952
:10095C000A128A1107220A128A117D080F390A120B
:10096C008A1107220A128A1100300A128A110722F0
:10097C000A128A1101300A128A1107220A128A11EC
:10098C000800F200721CCB2CCC2CE12C8316031328
:10099C00400884008317411C83130130F000430886
:1009AC000739013EDB2C0310F00DFF3E031DD92C43
:1009BC0070088004F62C83160313400884008317F8
:1009CC00411C83130130F00043080739013EF02C21
:1009DC000310F00DFF3E031DEE2C7008FF3A80054E
:1009EC00F21CF92CFA2C102D400884008317411CA2
:1009FC0083130130F000430CF100F10C710C07393A
:100A0C00013E0A2D0310F00DFF3E031D082D70084A
:100A1C008004262D400884008317411C8313013069
:100A2C00F000430CF100F10C710C0739013E202D44
:100A3C000310F00DFF3E031D1E2D7008FF3A8005BC
:100A4C00721D292D2A2D3D2D400884008317411C31
:100A5C0083130130F00044080739013E372D031091
:100A6C00F00DFF3E031D352D70088004502D4008FD
:100A7C0084008317411C83130130F00044080739AC
:100A8C00013E4A2D0310F00DFF3E031D482D70084A
:100A9C00FF3A8005F21D532D542D6A2D4008840019
:100AAC008317411C83130130F000440CF100F10C4E
:100ABC00710C0739013E642D0310F00DFF3E031D30
:100ACC00622D70088004802D400884008317411C1F
:100ADC0083130130F000440CF100F10C710C073958
:100AEC00013E7A2D0310F00DFF3E031D782D70088A
:100AFC00FF3A8005080083120313220884000008C3
:100B0C0084000A128A110D200A128A11253A031D3B
:100B1C00902D912D2F2E22088400013080078316F2
:100B2C000313C501C601003083120313EE00FF301E
:100B3C00EC00FF30ED00220884000008AA002A080F
:100B4C0084000A128A110D200A128A11753A031DAB
:100B5C00B02DB12D282E2308840083130008FF002C
:100B6C00023080077F0884000008A600840A000871
:100B7C00A700220884002A08013E80001D2E203088
:100B8C00AB000130AB022B08A03E84000A30F00011
:100B9C000030F1002708F3002608F2000A128A112F
:100BAC0005210A128A117008303E831380000A3026
:100BBC00F0000030F100831203132708F30026081D
:100BCC00F2000A128A117F210A128A11710883120B
:100BDC000313A7007008A600260827040319F72D95
:100BEC00F82D162E2B08031DFC2DFD2DC72D162EB2
:100BFC002B08A03E840083130008A400A501240840
:100C0C00F0002508F1002008F2002108F3000A1278
:100C1C008A1187230A128A11013083120313AB073E
:100C2C0020302B06031D1B2E1C2EFE2D482E2A08B1
:100C3C0084000A128A110D200A128A11753A0319BE
:100C4C00C52D282E8312031322088400013080073F
:100C5C00482E22088400000884000A128A110D20F4
:100C6C000A128A11A400A5012408F0002508F1003D
:100C7C002008F2002108F3000A128A1187230A12B5
:100C8C008A11282E08000A128A1184200A128A114D
:100C9C005730840083160313470883138000840A9B
:100CAC0048088000840A49088000840A4A088000A9
:100CBC00840A4B0880007630840083120313570893
:100CCC008000840A58088000840A59088000840A2D
:100CDC005A088000840A5B0880000A128A112124B9
:100CEC000A128A1100300A128A1107220A128A117A
:100CFC0001300A128A1107220A128A1108300A12CC
:100D0C008A1107220A128A1100300A128A1107224C
:100D1C000A128A110130F6008030F7000A128A118B
:100D2C003D210A128A1108300A128A1107220A126E
:100D3C008A110B300A128A1107220A128A1100300A
:100D4C000A128A11DA200A128A117108831203130B
:100D5C00DD007008DC000030A3000030A20003307E
:100D6C00A100FF30A0005C08F0005D08F100F2016A
:100D7C00F3010030F7000030F600C330F5005030BE
:100D8C00F4000A128A11C1210A128A117308831203
:100D9C000313A7007208A6007108A5007008A40030
:100DAC000A128A11EE220A128A11831203132108E5
:100DBC00E9002008E8001030F0002730F100690845
:100DCC00F3006808F2000A128A117F210A128A11B4
:100DDC00710883120313DF007008DE001030F0007E
:100DEC002730F1006908F3006808F2000A128A1132
:100DFC0005210A128A11710883120313E10070088D
:100E0C00E0004330B0001930B1005F08B3005E0859
:100E1C00B2006108B5006008B4000A128A11922071
:100E2C000A128A114330F6000030F7000A128A11B8
:100E3C003D210A128A1100300A128A1107220A1265
:100E4C008A1101300A128A1107220A128A110C30F7
:100E5C000A128A1107220A128A1100300A128A1108
:100E6C0007220A128A110D30F6008030F7000A12A0
:100E7C008A113D210A128A110C300A128A1107229A
:100E8C000A128A110B300A128A1107220A128A11CD
:100E9C0001300A128A11DA200A128A11710883129F
:100EAC000313E3007008E2000030A3000030A2003E
:100EBC000330A100FF30A0006208F0006308F100CD
:100ECC00F201F3010030F7000030F600C330F500FA
:100EDC005030F4000A128A11C1210A128A117308C7
:100EEC0083120313A7007208A6007108A5007008EE
:100EFC00A4000A128A11EE220A128A118312031319
:100F0C002108EB002008EA001030F0002730F10037
:100F1C006B08F3006A08F2000A128A117F210A1288
:100F2C008A11710883120313E5007008E400103075
:100F3C00F0002730F1006B08F3006A08F2000A1287
:100F4C008A1105210A128A11710883120313E70012
:100F5C007008E6004D30B0001930B1006508B300E0
:100F6C006408B2006708B5006608B4000A128A115A
:100F7C0092200A128A114D30F6000030F7000A1246
:100F8C008A113D210A128A11782E0A128A11002820
:100F9C00831603130A128A1177200A128A11C700CA
:100FAC000A128A1178200A128A11C8000A128A11B0
:100FBC0079200A128A11C9000A128A117A200A129F
:100FCC008A11CA000A128A117B200A128A11CB00DC
:100FDC008313A0308400C7300A128A117C200A12B5
:100FEC008A1183120313EC01ED01EE0183010A1245
:040FFC008A11492EDF
:04400E00F12FFF3F50
:00000001FF
