:060000000A128A11F92F1B
:100F7E0083160317880189018316031301087F392D
:100F8E008100FF308600880183120313880103104D
:100F9E00061C03140318D42FD82F8312031388149E
:100FAE00DB2F8312031388100310861C03140318FF
:100FBE00E12FE52F831203130815E82F8312031375
:100FCE0008110310061D03140318EE2FF22F8312BF
:100FDE0003138815F52F831203138811CE2F0A12CF
:100FEE008A110028F001F101F20183010A128A111F
:020FFE00BF2F03
:04400E00F12FFF3F50
:00000001FF
